:100000000C9472000C9493000C9493000C94930045
:100010000C9493000C9493000C9493000C94930014
:100020000C9493000C9493000C9493000C94930004
:100030000C9493000C9493000C9493000C949300F4
:100040000C9493000C9493000C9493000C949300E4
:100050000C9493000C9449060C9493000C94930018
:100060000C9493000C9493000C9493000C949300C4
:100070000C9493000C9493000C9493000C949300B4
:100080000C9493000C9493000C9493000C949300A4
:100090000C9493000C9493000C9493000C94930094
:1000A0000C9493000C9493000C9493000C94930084
:1000B0000C9493000C9493000C9493000C94930074
:1000C0000C9493000C9493000C9493000C94930064
:1000D0000C9493000C9493000C9493000C94930054
:1000E0000C94930011241FBECFEFD1E2DEBFCDBF31
:1000F00000E00CBF12E0A0E0B2E0EAE0FEE200E0C7
:100100000BBF02C007900D92A230B107D9F722E0D1
:10011000A2E0B2E001C01D92AF30B207E1F70E9449
:10012000D6060C9403170C940000CF93DF93CDB741
:10013000DEB784E290E0FC01208184E290E020625E
:10014000FC01208385E290E0FC01208185E290E0C3
:100150002062FC0120830000DF91CF910895CF93AE
:10016000DF93CDB7DEB785E290E0FC01208185E228
:1001700090E02062FC0120830000DF91CF91089580
:10018000CF93DF93CDB7DEB785E290E0FC0120810D
:1001900085E290E02F7DFC0120830000DF91CF916C
:1001A0000895CF93DF93CDB7DEB785E290E0FC01F1
:1001B000308185E290E020E22327FC0120830000CB
:1001C000DF91CF910895CF93DF93CDB7DEB780EA6B
:1001D00090E0FC01108281EA90E024E0FC012083A1
:1001E00084EA90E0FC01118210820000DF91CF913F
:1001F0000895CF93DF93CDB7DEB7A2970FB6F894EB
:10020000DEBF0FBECDBF68EC81E00E94660568ECE2
:1002100082E00E94660580E090E0A8ECB2E4898369
:100220009A83AB83BC8320E030E04AE755E46981E0
:100230007A818B819C810E9496166B8B7C8B8D8B37
:100240009E8B8B899C89AD89BE898D839E83AF836C
:10025000B88720E030E040E85FE36D817E818F81E8
:1002600098850E94391588232CF481E090E09A87C4
:10027000898755C020E03FEF4FE757E46D817E81CD
:100280008F8198850E9491168823D9F1D4F120E0BE
:1002900030E040E251E469817A818B819C810E9447
:1002A00096166F8B788F898F9A8F8F89988DA98DED
:1002B000BA8D8F87988BA98BBA8B6F85788989893E
:1002C0009A890E94B0156B8F7C8F8D8F9E8FAB8D1E
:1002D000BC8DBA87A98710C080E991E09C878B8785
:1002E0008B859C850197F1F79C878B87000089851A
:1002F0009A8501979A87898789859A85009761F7FA
:1003000019C06D817E818F8198850E94B0156F8F95
:1003100078A389A39AA38F8D98A19A8789878985C5
:100320009A859E878D878D859E850197F1F79E879B
:100330008D8700000000A2960FB6F894DEBF0FBEB6
:10034000CDBFDF91CF910895CF93DF93CDB7DEB7C7
:10035000A2970FB6F894DEBF0FBECDBF68EC81E068
:100360000E94660564E682E00E94660580E090E0F7
:10037000A8ECB2E489839A83AB83BC8320E030E0AD
:100380004AE755E469817A818B819C810E949616A7
:100390006B8B7C8B8D8B9E8B8B899C89AD89BE8969
:1003A0008D839E83AF83B88720E030E040E85FE331
:1003B0006D817E818F8198850E94391588232CF468
:1003C00081E090E09A87898755C020E03FEF4FE7B2
:1003D00057E46D817E818F8198850E9491168823D4
:1003E000D9F1D4F120E030E040E251E469817A8132
:1003F0008B819C810E9496166F8B788F898F9A8F44
:100400008F89988DA98DBA8D8F87988BA98BBA8B80
:100410006F85788989899A890E94B0156B8F7C8F46
:100420008D8F9E8FAB8DBC8DBA87A98710C080E958
:1004300091E09C878B878B859C850197F1F79C8742
:100440008B87000089859A8501979A878987898596
:100450009A85009761F719C06D817E818F8198859B
:100460000E94B0156F8F78A389A39AA38F8D98A14E
:100470009A87898789859A859E878D878D859E85B0
:100480000197F1F79E878D8700000000A2960FB6B6
:10049000F894DEBF0FBECDBFDF91CF910895CF930B
:1004A000DF93CDB7DEB7A2970FB6F894DEBF0FBECD
:1004B000CDBF60E081E00E9466056FEF82E00E94A0
:1004C000660580E090E0A8ECB2E489839A83AB8370
:1004D000BC8320E030E04AE755E469817A818B8172
:1004E0009C810E9496166B8B7C8B8D8B9E8B8B894F
:1004F0009C89AD89BE898D839E83AF83B88720E0B8
:1005000030E040E85FE36D817E818F8198850E94B5
:10051000391588232CF481E090E09A87898755C0AB
:1005200020E03FEF4FE757E46D817E818F81988512
:100530000E9491168823D9F1D4F120E030E040E206
:1005400051E469817A818B819C810E9496166F8B20
:10055000788F898F9A8F8F89988DA98DBA8D8F8783
:10056000988BA98BBA8B6F85788989899A890E9423
:10057000B0156B8F7C8F8D8F9E8FAB8DBC8DBA87A6
:10058000A98710C080E991E09C878B878B859C852B
:100590000197F1F79C878B87000089859A850197E1
:1005A0009A87898789859A85009761F719C06D8137
:1005B0007E818F8198850E94B0156F8F78A389A363
:1005C0009AA38F8D98A19A87898789859A859E8716
:1005D0008D878D859E850197F1F79E878D87000019
:1005E0000000A2960FB6F894DEBF0FBECDBFDF911C
:1005F000CF910895CF93DF93CDB7DEB7A2970FB613
:10060000F894DEBF0FBECDBF60E081E00E946605BA
:1006100060E082E00E94660580E090E0A8ECB2E431
:1006200089839A83AB83BC8320E030E04AE755E4BA
:1006300069817A818B819C810E9496166B8B7C8B61
:100640008D8B9E8B8B899C89AD89BE898D839E8382
:10065000AF83B88720E030E040E85FE36D817E81C2
:100660008F8198850E94391588232CF481E090E0D1
:100670009A87898755C020E03FEF4FE757E46D81A7
:100680007E818F8198850E9491168823D9F1D4F1BB
:1006900020E030E040E251E469817A818B819C81E5
:1006A0000E9496166F8B788F898F9A8F8F89988D7D
:1006B000A98DBA8D8F87988BA98BBA8B6F85788916
:1006C00089899A890E94B0156B8F7C8F8D8F9E8F40
:1006D000AB8DBC8DBA87A98710C080E991E09C875B
:1006E0008B878B859C850197F1F79C878B87000012
:1006F00089859A8501979A87898789859A85009740
:1007000061F719C06D817E818F8198850E94B01537
:100710006F8F78A389A39AA38F8D98A19A878987D1
:1007200089859A859E878D878D859E850197F1F7AE
:100730009E878D8700000000A2960FB6F894DEBF5A
:100740000FBECDBFDF91CF910895CF93DF93CDB78B
:10075000DEB7A2970FB6F894DEBF0FBECDBF66E935
:1007600081E00E94660568EC82E00E94660580E0F8
:1007700090E0A8ECB2E489839A83AB83BC8320E049
:1007800030E04AE755E469817A818B819C810E943F
:1007900096166B8B7C8B8D8B9E8B8B899C89AD8900
:1007A000BE898D839E83AF83B88720E030E040E828
:1007B0005FE36D817E818F8198850E943915882342
:1007C0002CF481E090E09A87898755C020E03FEFC4
:1007D0004FE757E46D817E818F8198850E94911645
:1007E0008823D9F1D4F120E030E040E251E469817E
:1007F0007A818B819C810E9496166F8B788F898F6E
:100800009A8F8F89988DA98DBA8D8F87988BA98B98
:10081000BA8B6F85788989899A890E94B0156B8F08
:100820007C8F8D8F9E8FAB8DBC8DBA87A98710C0B2
:1008300080E991E09C878B878B859C850197F1F7F8
:100840009C878B87000089859A8501979A8789877D
:1008500089859A85009761F719C06D817E818F81A6
:1008600098850E94B0156F8F78A389A39AA38F8D66
:1008700098A19A87898789859A859E878D878D8596
:100880009E850197F1F79E878D8700000000A29654
:100890000FB6F894DEBF0FBECDBFDF91CF910895A4
:1008A000CF93DF93CDB7DEB7A2970FB6F894DEBF34
:1008B0000FBECDBF68EC81E00E94660566E982E06C
:1008C0000E94660580E090E0A8ECB2E489839A83F8
:1008D000AB83BC8320E030E04AE755E469817A814C
:1008E0008B819C810E9496166B8B7C8B8D8B9E8B53
:1008F0008B899C89AD89BE898D839E83AF83B887A0
:1009000020E030E040E85FE36D817E818F81988553
:100910000E94391588232CF481E090E09A8789871A
:1009200055C020E03FEF4FE757E46D817E818F8116
:1009300098850E9491168823D9F1D4F120E030E007
:1009400040E251E469817A818B819C810E949616F4
:100950006F8B788F898F9A8F8F89988DA98DBA8D9B
:100960008F87988BA98BBA8B6F85788989899A89AB
:100970000E94B0156B8F7C8F8D8F9E8FAB8DBC8D41
:10098000BA87A98710C080E991E09C878B878B8507
:100990009C850197F1F79C878B87000089859A8554
:1009A00001979A87898789859A85009761F719C089
:1009B0006D817E818F8198850E94B0156F8F78A39D
:1009C00089A39AA38F8D98A19A87898789859A850B
:1009D0009E878D878D859E850197F1F79E878D87F0
:1009E00000000000A2960FB6F894DEBF0FBECDBF88
:1009F000DF91CF910895CF93DF93CDB7DEB78AE033
:100A000091E0FC0120818AE091E02560FC012083D7
:100A100084E290E0FC01208184E290E02560FC010A
:100A2000208381E091E0FC01208181E091E020645D
:100A3000FC0120838DE290E0FC0120818DE290E0BA
:100A40002860FC01208380EB90E0FC01208180EB9A
:100A500090E02360FC01208380EB90E0FC0120818A
:100A600080EB90E02062FC01208381EB90E0FC01B0
:100A7000208181EB90E02260FC01208380E990E0FE
:100A8000FC01208180E990E02960FC01208380E95D
:100A900090E0FC01208180E990E02068FC01208347
:100AA00081E990E0FC01208181E990E02260FC0175
:100AB000208384EB90E0FC01108288E990E0FC0147
:100AC000118210820000DF91CF910895CF93DF93C0
:100AD0000F920F92CDB7DEB789836A838981813007
:100AE00029F484EB90E02A81FC0120838981823003
:100AF00041F488E990E02A81222F30E0FC01318323
:100B0000208300000F900F90DF91CF910895CF9335
:100B1000DF930F920F92CDB7DEB789836A83898105
:100B20008130B1F48A81813059F58BE091E0FC018C
:100B300020818BE091E02460FC0120838BE091E038
:100B4000FC0120818BE091E02E7FFC01208318C006
:100B500089818230A9F48A81813091F485E290E024
:100B6000FC01208185E290E02460FC01208385E285
:100B700090E0FC01208185E290E02E7FFC01208343
:100B800000000F900F90DF91CF910895CF93DF93E6
:100B9000CDB7DEB761E081E00E94870561E082E0C9
:100BA0000E9487050000DF91CF910895CF93DF93D6
:100BB000CDB7DEB780E390E0FC01208180E390E0D8
:100BC0002F7DFC01208380E390E0FC01208180E305
:100BD00090E02F7BFC0120830000DF91CF910895EE
:100BE000CF93DF93CDB7DEB78FE290E0FC01808139
:100BF000882F90E08072992721E0009709F020E08B
:100C0000822F90E0DF91CF910895CF93DF93CDB7FE
:100C1000DEB78FE290E0FC018081882F90E0807445
:100C2000992721E0009709F020E0822F90E0DF91E2
:100C3000CF910895CF93DF93CDB7DEB70E94C6055D
:100C40000E94FB040E94D6050E94670E0E94E300EA
:100C500084E490E022E0FC01208385E490E025E03C
:100C6000FC01208387E490E02CE9FC0120838EE6E0
:100C700090E0FC0120818EE690E02260FC01208360
:100C800078940E9495000E94C0000000DF91CF91EF
:100C900008951F920F920FB60F9211240BB60F9268
:100CA0002F933F934F935F936F937F938F939F9374
:100CB000AF93BF93EF93FF93CF93DF93CDB7DEB79F
:100CC00080910202882341F180910E028F5F809310
:100CD0000E0290910E028BED989F812D112482952A
:100CE0008695869583702BE4829F802D1124292F71
:100CF000281B822F882311F40E94D10080910E02BC
:100D0000853951F048F01092020281E0809303028D
:100D100010920E020E94C000809103028823F9F015
:100D200080910402909105020196909305028093B0
:100D3000040280910402909105028A34910579F0B1
:100D400070F01092030210920502109204020E94A9
:100D5000C50681E090E090930102809300020000BC
:100D6000DF91CF91FF91EF91BF91AF919F918F91C3
:100D70007F916F915F914F913F912F910F900BBE9B
:100D80000F900FBE0F901F901895CF93DF93CDB7A4
:100D9000DEB785E490E0FC01208185E490E0287FC7
:100DA000FC0120830000DF91CF9108950F931F93E2
:100DB000CF93DF93CDB7DEB7CA5CD1090FB6F894F5
:100DC000DEBF0FBECDBF0E941A060E94C00E639602
:100DD0006CAF7DAF8EAF9FAF639763966CAD7DAD0B
:100DE0008EAD9FAD63970E94B015E3966CAF7DAF5B
:100DF0008EAF9FAFE397E1968EAD9FADE1979C8359
:100E00008B830E94C41067966CAF7DAF8EAF9FAF8F
:100E1000679767966CAD7DAD8EAD9FAD67970E946D
:100E2000B015E7966CAF7DAF8EAF9FAFE797E596B5
:100E3000AEADBFADE597BE83AD830E94C8126B9681
:100E40006CAF7DAF8EAF9FAF6B976B966CAD7DAD8A
:100E50008EAD9FAD6B970E94B015EB966CAF7DAFDA
:100E60008EAF9FAFEB97E996EEADFFADE997F887B0
:100E7000EF830E94F00590930902809308020E947C
:100E8000050690930B0280930A028B819C818E3021
:100E9000910539F030F08D819E818E30910509F0F9
:100EA000D0F4809103028823B1F480910202882358
:100EB00091F40E94FA02109201021092000281E065
:100EC0008093020285E490E0DC012C9185E490E0BF
:100ED0002560FC0120838F8198858E30910509F073
:100EE00078F40E94FA0210920102109200020E940D
:100EF000C00081E090E090930702809306020AC050
:100F0000109207021092060281E090E09093010295
:100F1000809300028F8198858D31910511F008F042
:100F2000DFC08F8198858F30910509F008F4D8C013
:100F30001A821982CEC089E390E0DC018C91882F5F
:100F400090E081709927009709F4BEC084EA90E090
:100F500020E43CE0FC013183208389E390E021E040
:100F6000DC012C930E94D10080E090E0A8ECB2E478
:100F700089879A87AB87BC8720E030E04AE755E451
:100F800069857A858B859C850E949616EF966CAF55
:100F90007DAF8EAF9FAFEF97EF968CAD9DADAEADB1
:100FA000BFADEF978D879E87AF87B88B20E030E08D
:100FB00040E85FE36D857E858F8598890E943915AD
:100FC00088232CF481E090E09A8B898B72C020E01A
:100FD0003FEF4FE757E46D857E858F8598890E94A6
:100FE0009116882309F00CF44EC020E030E040E276
:100FF00051E469857A858B859C850E949616C15837
:10100000DF4F688379838A839B83CF57D040C15851
:10101000DF4F88819981AA81BB81CF57D0406F96DD
:101020008CAF9DAFAEAFBFAF6F976F966CAD7DAD20
:101030008EAD9FAD6F970E94B015CD57DF4F68837F
:1010400079838A839B83C358D040CD57DF4FA881D3
:10105000B981C358D040BA8BA98B10C080E991E008
:101060009C8B8B8B8B899C890197F1F79C8B8B8B4D
:10107000000089899A8901979A8B898B89899A8935
:10108000009761F721C06D857E858F8598890E94C4
:10109000B015C957DF4F688379838A839B83C7580C
:1010A000D040C957DF4FE881F981C758D040FA8B4B
:1010B000E98B89899A899E8B8D8B8D899E89019771
:1010C000F1F79E8B8D8B000089819A8101969A831E
:1010D000898389819A818130910509F00CF42BCFA5
:1010E0008091080290910902009709F4D5C080917F
:1010F0000A0290910B02009709F4CEC0809102027F
:10110000882309F0C9C080910602909107020097D8
:1011100009F0C2C08091000290910102009709F489
:10112000BBC00E94F90010920D0210920C0280E0E8
:1011300090E0A8ECB2E48F8B988FA98FBA8F20E053
:1011400030E04AE755E46F89788D898D9A8D0E9449
:101150009616C557DF4F688379838A839B83CB5864
:10116000D040C557DF4F88819981AA81BB81CB5878
:10117000D0408B8F9C8FAD8FBE8F20E030E040E859
:101180005FE36B8D7C8D8D8D9E8D0E94391588233C
:101190002CF481E090E098A38F8F72C020E03FEFA5
:1011A0004FE757E46B8D7C8D8D8D9E8D0E9491163F
:1011B000882309F00CF44EC020E030E040E251E416
:1011C0006F89788D898D9A8D0E949616C157DF4F51
:1011D000688379838A839B83CF58D040C157DF4F80
:1011E00088819981AA81BB81CF58D040A3968CAFCA
:1011F0009DAFAEAFBFAFA397A3966CAD7DAD8EADE7
:101200009FADA3970E94B015CD56DF4F68837983B9
:101210008A839B83C359D040CD56DF4FA881B981C3
:10122000C359D040B8A3AF8F10C080E991E09AA312
:1012300089A389A19AA10197F1F79AA389A3000034
:101240008F8D98A1019798A38F8F8F8D98A100976C
:1012500061F721C06B8D7C8D8D8D9E8D0E94B015A8
:10126000C956DF4F688379838A839B83C759D040EF
:10127000C956DF4FE881F981C759D040F8A3EF8FF5
:101280008F8D98A19CA38BA38BA19CA10197F1F7B3
:101290009CA38BA30000F3C28091080290910902E5
:1012A000009709F0D1C080910A0290910B0200973B
:1012B00009F4CAC080910202882309F0C5C0809158
:1012C000060290910702009709F0BEC080910002CB
:1012D00090910102009709F4B7C00E94500480E089
:1012E00090E0A8ECB2E48DA39EA3AFA3B8A720E042
:1012F00030E04AE755E46DA17EA18FA198A50E9438
:101300009616C556DF4F688379838A839B83CB59B2
:10131000D040C556DF4F88819981AA81BB81CB59C6
:10132000D04089A79AA7ABA7BCA720E030E040E84F
:101330005FE369A57AA58BA59CA50E943915882332
:101340002CF481E090E09EA78DA772C020E03FEFD3
:101350004FE757E469A57AA58BA59CA50E94911635
:10136000882309F00CF44EC020E030E040E251E464
:101370006DA17EA18FA198A50E949616C156DF4F40
:10138000688379838A839B83CF59D040C156DF4FCE
:1013900088819981AA81BB81CF59D040A7968CAF13
:1013A0009DAFAEAFBFAFA797A7966CAD7DAD8EAD2D
:1013B0009FADA7970E94B015CD55DF4F6883798305
:1013C0008A839B83C35AD040CD55DF4FA881B98112
:1013D000C35AD040BEA7ADA710C080E991E098AB3A
:1013E0008FA78FA598A90197F1F798AB8FA7000059
:1013F0008DA59EA501979EA78DA78DA59EA500975B
:1014000061F721C069A57AA58BA59CA50E94B0159E
:10141000C955DF4F688379838A839B83C75AD0403D
:10142000C955DF4FE881F981C75AD040FEA7EDA723
:101430008DA59EA59AAB89AB89A99AA90197F1F7C9
:101440009AAB89AB00001BC28091080290910902FF
:10145000009709F4DCC080910A0290910B0200977A
:1014600009F0D5C080910202882309F0D0C0809194
:10147000060290910702009709F0C9C0809100020E
:1014800090910102009709F4C2C00E94A50380E078
:1014900090E0A8ECB2E48BAB9CABADABBEAB20E074
:1014A00030E04AE755E46BA97CA98DA99EA90E946A
:1014B0009616C555DF4F688379838A839B83CB5A01
:1014C000D040C555DF4F88819981AA81BB81CB5A15
:1014D000D0408FAB98AFA9AFBAAF20E030E040E882
:1014E0005FE36FA978AD89AD9AAD0E943915882365
:1014F0002CF481E090E09CAF8BAF72C020E03FEF16
:101500004FE757E46FA978AD89AD9AAD0E94911667
:10151000882309F00CF44EC020E030E040E251E4B2
:101520006BA97CA98DA99EA90E949616C155DF4F73
:10153000688379838A839B83CF5AD040C155DF4F1C
:1015400088819981AA81BB81CF5AD040AB968CAF5C
:101550009DAFAEAFBFAFAB97AB966CAD7DAD8EAD73
:101560009FADAB970E94B015CD54DF4F6883798350
:101570008A839B83C35BD040CD54DF4FA881B98160
:10158000C35BD040BCAFABAF10C080E991E09EAF71
:101590008DAF8DAD9EAD0197F1F79EAF8DAF000081
:1015A0008BAD9CAD01979CAF8BAF8BAD9CAD009785
:1015B00061F72CC06FA978AD89AD9AAD0E94B015C6
:1015C000C954DF4F688379838A839B83C75BD0408C
:1015D000C954DF4FE881F981C75BD040FCAFEBAF66
:1015E0002BAD3CADCE01CF96DC012D933C93CE01CB
:1015F000CF96FC01808191810197F1F79E01215CDA
:101600003F4FD90111969C938E93000038C1809171
:10161000080290910902009709F0D7CB80910A0245
:1016200090910B02009709F0D0CB809102028823A1
:1016300009F0CBCB8091060290910702009709F048
:10164000C4CB8091000290910102009709F4BDCBB8
:1016500080910C0290910D02009709F0B6CB0E9488
:101660004F0281E090E090930D0280930C029E0166
:101670002F5B3F4F80E090E0A8ECB2E4F90180835B
:101680009183A283B3838E010B5B1F4FCE018F5BCF
:101690009F4F20E030E04AE755E4DC016D917D91F9
:1016A0008D919C910E949616C554DF4F6883798373
:1016B0008A839B83CB5BD040C554DF4F888199815F
:1016C000AA81BB81CB5BD040F80180839183A28348
:1016D000B383CE018B5B9F4F20E030E040E85FE3B7
:1016E000DC016D917D918D919C910E94391588232B
:1016F0004CF4CE01875B9F4F21E030E0FC01318349
:101700002083A1C0CE018B5B9F4F20E03FEF4FE7CE
:1017100057E4DC016D917D918D919C910E94911611
:10172000882309F00CF471C0CE018F5B9F4F20E03D
:1017300030E040E251E4FC0160817181828193815B
:101740000E949616C154DF4F688379838A839B83F6
:10175000CF5BD040C154DF4F88819981AA81BB8182
:10176000CF5BD040AF968CAF9DAFAEAFBFAFAF9762
:101770008E01075B1F4FAF966CAD7DAD8EAD9FADFB
:10178000AF970E94B015CD53DF4F688379838A836A
:101790009B83C35CD040CD53DF4FE881F981C35CAC
:1017A000D040D8011196FC93EE9326C0CE01855B04
:1017B0009F4F20E931E0DC012D933C93CE01855B06
:1017C0009F4FFC01808191810197F1F79E01255B7C
:1017D0003F4FD9018D939C930000CE01875B9F4FB3
:1017E0009E01275B3F4FF901208131812150310952
:1017F000DC0111963C932E93CE01875B9F4FFC0139
:1018000080819181009791F63AC08E01075B1F4F4E
:10181000CE018B5B9F4FDC016D917D918D919C91F1
:101820000E94B015C953DF4F688379838A839B83F5
:10183000C75CD040C953DF4F88819981C75CD040D5
:10184000F80191838083CE01835B9F4F9E01275BCC
:101850003F4FD9012D913C91FC0131832083CE0172
:10186000835B9F4FDC018D919C9111970197F1F75C
:101870009E01235B3F4FF901918380830000A5CA3D
:101880008F929F92AF92BF92CF92DF92EF92FF9290
:101890000F931F93CF93DF93CDB7DEB762970FB649
:1018A000F894DEBF0FBECDBF9A8389834B835C83E0
:1018B0006D837E830F83188729873A87CB86DC86E2
:1018C000ED86FE868F86988AA98ABA8A29813A810E
:1018D0008B819C81AD81BE81F90180839183A2833C
:1018E000B38329813A818F819885A985BA85F901C9
:1018F00084839583A683B78329813A818B859C85D0
:10190000AD85BE85F90180879187A287B3878981DC
:101910009A81FC01148615861686178689819A811C
:10192000FC01108A118A128A138A89819A81FC012A
:10193000148A158A168A178A29813A818F8598898F
:10194000A989BA89F901848F958FA68FB78F2981CC
:101950003A818AA19BA1ACA1BDA1F90180A391A369
:10196000A2A3B3A389819A81FC01108E118E128EDD
:10197000138E000062960FB6F894DEBF0FBECDBF87
:10198000DF91CF911F910F91FF90EF90DF90CF905B
:10199000BF90AF909F908F900895CF93DF93CDB776
:1019A000DEB7C655D1090FB6F894DEBF0FBECDBF66
:1019B0009A8789874B875C876D877E8789859A851B
:1019C000DC0154962D913D914D915C9157972F8755
:1019D000388B498B5A8B2B853C854D855E856F8571
:1019E000788989899A890E94CC146FAB78AF89AFC6
:1019F0009AAF2FA938AD49AD5AAD29833A834B83AD
:101A00005C8389859A85DC0150962D913D914D919D
:101A10005C9153972B8B3C8B4D8B5E8B29813A814C
:101A20004B815C816B897C898D899E890E94CD1454
:101A30006BAF7CAF8DAF9EAF8BAD9CADADADBEAD92
:101A400029853A85F901808B918BA28BB38B89858F
:101A50009A85FC0184859585A685B7859C01AD0195
:101A600069817A818B819C810E94CC1423966CAF12
:101A70007DAF8EAF9FAF239723962CAD3DAD4EAD7E
:101A80005FAD23972D833E834F83588789859A8541
:101A9000DC012D913D914D915C912F8B388F498FB9
:101AA0005A8F29813A814B815C816F89788D898D2C
:101AB0009A8D0E94961627966CAF7DAF8EAF9FAF22
:101AC000279727962CAD3DAD4EAD5FAD27972B8F59
:101AD0003C8F4D8F5E8F89859A85DC0114962D9100
:101AE0003D914D915C9117972F8F38A349A35AA32D
:101AF00089859A85FC0180899189A289B3899C0195
:101B0000AD016F8D78A189A19AA10E9496162B969E
:101B10006CAF7DAF8EAF9FAF2B972B968CAD9DADED
:101B2000AEADBFAD2B979C01AD016B8D7C8D8D8DC6
:101B30009E8D0E94CD142F966CAF7DAF8EAF9FAF60
:101B40002F972F962CAD3DAD4EAD5FAD2F972BA3AC
:101B50003CA34DA35EA389859A85DC0118962D913F
:101B60003D914D915C911B972FA338A749A75AA788
:101B70002D813E814F8158856FA178A589A59AA5B1
:101B80000E94961663966CAF7DAF8EAF9FAF639742
:101B900063968CAD9DADAEADBFAD63979C01AD01BD
:101BA0006BA17CA18DA19EA10E94CD1467966CAF04
:101BB0007DAF8EAF9FAF679767968CAD9DADAEAD95
:101BC000BFAD679729853A85F901808F918FA28FE4
:101BD000B38F89859A85DC0158962D913D914D9161
:101BE0005C915B972BA73CA74DA75EA789859A853B
:101BF000FC0180A191A1A2A1B3A19C01AD016BA5A3
:101C00007CA58DA59EA50E949116882381F07CF06D
:101C100089859A85FC0180A191A1A2A1B3A1298502
:101C20003A85F901808F918FA28FB38F2CC089855F
:101C30009A85DC0158962D913D914D915C915B9771
:101C40002FA738AB49AB5AAB89859A85FC01848DA7
:101C5000958DA68DB78D9C01AD016FA578A989A939
:101C60009AA90E943915882374F489859A85FC0104
:101C7000848D958DA68DB78D29853A85F901808F44
:101C8000918FA28FB38F29853A8589819A81AB8103
:101C9000BC81F90184879587A687B78789859A854E
:101CA000FC01808D918DA28DB38D8BAB9CABADABC8
:101CB000BEAB6BA97CA98DA99EA9CA5ADF4F0FB6EE
:101CC000F894DEBF0FBECDBFDF91CF910895CF93C3
:101CD000DF93CDB7DEB781E091E0FC01208181E0A8
:101CE00091E02160FC01208381E091E0FC012081F2
:101CF00081E091E02D7FFC01208382E091E0FC01F6
:101D0000208182E091E02E7FFC01208384E091E03D
:101D1000FC01208184E091E02260FC01208384E0CA
:101D200091E0FC01208184E091E02E7FFC01208382
:101D300085E091E0FC01208185E091E02D7FFC01B0
:101D4000208381E091E0FC01208181E091E020612D
:101D5000FC01208381E091E0FC01208181E091E0A1
:101D60002F7DFC01208382E091E0FC01208182E054
:101D700091E02F7EFC0120830000DF91CF91089538
:101D8000CF93DF93CDB7DEB7C656D1090FB6F8941F
:101D9000DEBF0FBECDBF82E091E0DC012C9182E07E
:101DA00091E02160FC01208380E090E0A0E2B1E4BA
:101DB0008F839887A987BA872BEA3AEA4AEA50E4E0
:101DC0006F81788589859A850E9496166FAB78AF6A
:101DD00089AF9AAF2FA938AD49AD5AAD2B873C8753
:101DE0004D875E8720E030E040E850E46F817885E1
:101DF00089859A850E9496166BAF7CAF8DAF9EAF9A
:101E00008BAD9CADADADBEAD8F87988BA98BBA8BDA
:101E100020E030E040E85FE36B857C858D859E8522
:101E20000E94391588231CF481E08B8BFBC020E0D5
:101E30003FEF4FE757E46F85788989899A890E9437
:101E40009116882309F00CF4B2C020E030E04AE794
:101E500054E46F81788589859A850E943E15239682
:101E60006CAF7DAF8EAF9FAF239723968CAD9DADAA
:101E7000AEADBFAD23978C8B9D8BAE8BBF8B20E01F
:101E800030E04AE755E46C897D898E899F890E94FC
:101E9000961627966CAF7DAF8EAF9FAF279727968C
:101EA0002CAD3DAD4EAD5FAD2797288F398F4A8F52
:101EB0005B8F20E030E040E85FE3688D798D8A8DAC
:101EC0009B8D0E94391588232CF481E090E09D8F32
:101ED0008C8F62C020E03FEF4FE757E4688D798D2B
:101EE0008A8D9B8D0E949116882309F00CF442C0C4
:101EF00020E030E040E251E46C897D898E899F8941
:101F00000E9496162B966CAF7DAF8EAF9FAF2B972E
:101F10002B968CAD9DADAEADBFAD2B978FA798AB7B
:101F2000A9ABBAAB6FA578A989A99AA90E94B015E7
:101F30002F966CAF7DAF8EAF9FAF2F972D96AEAD26
:101F4000BFAD2D97BD8FAC8F10C080E991E09F8F02
:101F50008E8F8E8D9F8D0197F1F79F8F8E8F000052
:101F60008C8D9D8D01979D8F8C8F8C8D9D8D009775
:101F700061F758C0688D798D8A8D9B8D0E94B01550
:101F800063966CAF7DAF8EAF9FAF63976196EEADFA
:101F9000FFAD6197FD8FEC8F8C8D9D8D99A388A3EC
:101FA00088A199A10197F1F799A388A33BC020E0EC
:101FB00030E04FE753E46B857C858D859E850E94DC
:101FC00091168823F9F0F4F06F85788989899A89C8
:101FD0000E94B01567966CAF7DAF8EAF9FAF6797CD
:101FE00065962EAD3FAD65973BA32AA38AA19BA121
:101FF0009DA38CA38CA19DA10197F1F79DA38CA318
:10200000000017C06B857C858D859E850E94B0156C
:102010006B966CAF7DAF8EAF9FAF6B9768963FAD01
:1020200068973B8B8B898EA38EA18A95F1F78EA33F
:10203000000082E091E0DC012C9182E091E02E7FB3
:10204000FC012083000080E091E0DC018C91882F6E
:1020500090E0827099270097B1F384E890E0FC014A
:102060001182108281E890E0DC012C9181E890E0FF
:102070002260FC0120830BC084E890E0DC018D919C
:102080009C9111978036BAEE9B0709F058F480E0D6
:1020900091E0FC018081882F90E082709927009761
:1020A00059F701C0000081E890E0DC012C9181E843
:1020B00090E02D7FFC01208384E890E0DC018D918D
:1020C0009C919A83898389819A819C0140E050E0A8
:1020D0006F962CAF3DAF4EAF5FAF6F976F966CAD05
:1020E0007DAD8EAD9FAD6F970E94DF156FA378A772
:1020F00089A79AA720E030E048E652E46FA178A5CE
:1021000089A59AA50E943E15A3966CAF7DAF8EAFB0
:102110009FAFA397A3968CAD9DADAEADBFADA3977A
:102120008BA79CA7ADA7BEA720E030E040E050E41D
:102130006BA57CA58DA59EA50E943E15A7966CAFAC
:102140007DAF8EAF9FAFA797A7962CAD3DAD4EAD9F
:102150005FADA7972B833C834D835E838B819C81EE
:10216000AD81BE818BAB9CABADABBEAB6BA97CA98B
:102170008DA99EA9CA59DF4F0FB6F894DEBF0FBED6
:10218000CDBFDF91CF910895CF93DF93CDB7DEB769
:10219000C656D1090FB6F894DEBF0FBECDBF85E09D
:1021A00091E0DC012C9185E091E02260FC0120832C
:1021B00080E090E0A0E2B1E48F839887A987BA8796
:1021C0002BEA3AEA4AEA50E46F81788589859A8554
:1021D0000E9496166FAB78AF89AF9AAF2FA938AD32
:1021E00049AD5AAD2B873C874D875E8720E030E0B4
:1021F00040E850E46F81788589859A850E9496161B
:102200006BAF7CAF8DAF9EAF8BAD9CADADADBEADBA
:102210008F87988BA98BBA8B20E030E040E85FE392
:102220006B857C858D859E850E94391588231CF4DD
:1022300081E08B8BFBC020E03FEF4FE757E46F85D9
:10224000788989899A890E949116882309F00CF46B
:10225000B2C020E030E04AE754E46F817885898598
:102260009A850E943E1523966CAF7DAF8EAF9FAFCF
:10227000239723968CAD9DADAEADBFAD23978C8BD0
:102280009D8BAE8BBF8B20E030E04AE755E46C8934
:102290007D898E899F890E94961627966CAF7DAFA7
:1022A0008EAF9FAF279727962CAD3DAD4EAD5FAD5E
:1022B0002797288F398F4A8F5B8F20E030E040E8E6
:1022C0005FE3688D798D8A8D9B8D0E9439158823F7
:1022D0002CF481E090E09D8F8C8F62C020E03FEF76
:1022E0004FE757E4688D798D8A8D9B8D0E949116FA
:1022F000882309F00CF442C020E030E040E251E4D1
:102300006C897D898E899F890E9496162B966CAF69
:102310007DAF8EAF9FAF2B972B968CAD9DADAEADA5
:10232000BFAD2B978FA798ABA9ABBAAB6FA578A918
:1023300089A99AA90E94B0152F966CAF7DAF8EAF78
:102340009FAF2F972D96AEADBFAD2D97BD8FAC8FA4
:1023500010C080E991E09F8F8E8F8E8D9F8D0197A9
:10236000F1F79F8F8E8F00008C8D9D8D01979D8F33
:102370008C8F8C8D9D8D009761F758C0688D798DFD
:102380008A8D9B8D0E94B01563966CAF7DAF8EAF2A
:102390009FAF63976196EEADFFAD6197FD8FEC8FB8
:1023A0008C8D9D8D99A388A388A199A10197F1F7A0
:1023B00099A388A33BC020E030E04FE753E46B854E
:1023C0007C858D859E850E9491168823F9F0F4F016
:1023D0006F85788989899A890E94B01567966CAF54
:1023E0007DAF8EAF9FAF679765962EAD3FAD65977A
:1023F0003BA32AA38AA19BA19DA38CA38CA19DA1F1
:102400000197F1F79DA38CA3000017C06B857C8515
:102410008D859E850E94B0156B966CAF7DAF8EAF9B
:102420009FAF6B9768963FAD68973B8B8B898EA368
:102430008EA18A95F1F78EA3000085E091E0DC0182
:102440002C9185E091E02D7FFC012083000083E04A
:1024500091E0DC018C91882F90E0817099270097A2
:10246000B1F384E890E0FC011182108281E890E0F1
:10247000DC012C9181E890E02260FC0120830BC0FC
:1024800084E890E0DC018D919C9111978036BAEE42
:102490009B0709F058F483E091E0FC018081882FCC
:1024A00090E081709927009759F701C0000081E8FA
:1024B00090E0DC012C9181E890E02D7FFC012083ED
:1024C00084E890E0DC018D919C919A8389838981D5
:1024D0009A819C0140E050E06F962CAF3DAF4EAF2B
:1024E0005FAF6F976F966CAD7DAD8EAD9FAD6F9703
:1024F0000E94DF156FA378A789A79AA720E030E094
:1025000048E652E46FA178A589A59AA50E943E15D8
:10251000A3966CAF7DAF8EAF9FAFA397A3968CAD04
:102520009DADAEADBFADA3978BA79CA7ADA7BEA732
:1025300020E030E040E050E46BA57CA58DA59EA591
:102540000E943E15A7966CAF7DAF8EAF9FAFA79749
:10255000A7962CAD3DAD4EAD5FADA7972B833C83C9
:102560004D835E838B819C81AD81BE818BAB9CABA7
:10257000ADABBEAB6BA97CA98DA99EA9CA59DF4F93
:102580000FB6F894DEBF0FBECDBFDF91CF91089597
:10259000CF93DF93CDB7DEB7C656D1090FB6F89407
:1025A000DEBF0FBECDBF82E091E0DC012C9182E066
:1025B00091E02061FC01208380E090E0A0E2B1E4A2
:1025C0008F839887A987BA872BEA3AEA4AEA50E4C8
:1025D0006F81788589859A850E9496166FAB78AF52
:1025E00089AF9AAF2FA938AD49AD5AAD2B873C873B
:1025F0004D875E8720E030E040E850E46F817885C9
:1026000089859A850E9496166BAF7CAF8DAF9EAF81
:102610008BAD9CADADADBEAD8F87988BA98BBA8BC2
:1026200020E030E040E85FE36B857C858D859E850A
:102630000E94391588231CF481E08B8BFBC020E0BD
:102640003FEF4FE757E46F85788989899A890E941F
:102650009116882309F00CF4B2C020E030E04AE77C
:1026600054E46F81788589859A850E943E1523966A
:102670006CAF7DAF8EAF9FAF239723968CAD9DAD92
:10268000AEADBFAD23978C8B9D8BAE8BBF8B20E007
:1026900030E04AE755E46C897D898E899F890E94E4
:1026A000961627966CAF7DAF8EAF9FAF2797279674
:1026B0002CAD3DAD4EAD5FAD2797288F398F4A8F3A
:1026C0005B8F20E030E040E85FE3688D798D8A8D94
:1026D0009B8D0E94391588232CF481E090E09D8F1A
:1026E0008C8F62C020E03FEF4FE757E4688D798D13
:1026F0008A8D9B8D0E949116882309F00CF442C0AC
:1027000020E030E040E251E46C897D898E899F8928
:102710000E9496162B966CAF7DAF8EAF9FAF2B9716
:102720002B968CAD9DADAEADBFAD2B978FA798AB63
:10273000A9ABBAAB6FA578A989A99AA90E94B015CF
:102740002F966CAF7DAF8EAF9FAF2F972D96AEAD0E
:10275000BFAD2D97BD8FAC8F10C080E991E09F8FEA
:102760008E8F8E8D9F8D0197F1F79F8F8E8F00003A
:102770008C8D9D8D01979D8F8C8F8C8D9D8D00975D
:1027800061F758C0688D798D8A8D9B8D0E94B01538
:1027900063966CAF7DAF8EAF9FAF63976196EEADE2
:1027A000FFAD6197FD8FEC8F8C8D9D8D99A388A3D4
:1027B00088A199A10197F1F799A388A33BC020E0D4
:1027C00030E04FE753E46B857C858D859E850E94C4
:1027D00091168823F9F0F4F06F85788989899A89B0
:1027E0000E94B01567966CAF7DAF8EAF9FAF6797B5
:1027F00065962EAD3FAD65973BA32AA38AA19BA109
:102800009DA38CA38CA19DA10197F1F79DA38CA3FF
:10281000000017C06B857C858D859E850E94B01554
:102820006B966CAF7DAF8EAF9FAF6B9768963FADE9
:1028300068973B8B8B898EA38EA18A95F1F78EA327
:10284000000082E091E0DC012C9182E091E02F7E9B
:10285000FC012083000080E091E0DC018C91882F56
:1028600090E0807299270097B1F384E890E0FC0132
:102870001182108281E890E0DC012C9181E890E0E7
:102880002260FC0120830BC084E890E0DC018D9184
:102890009C9111978036BAEE9B0709F058F480E0BE
:1028A00091E0FC018081882F90E080729927009749
:1028B00059F701C0000081E890E0DC012C9181E82B
:1028C00090E02D7FFC01208384E890E0DC018D9175
:1028D0009C919A83898389819A819C0140E050E090
:1028E0006F962CAF3DAF4EAF5FAF6F976F966CADED
:1028F0007DAD8EAD9FAD6F970E94DF156FA378A75A
:1029000089A79AA720E030E048E652E46FA178A5B5
:1029100089A59AA50E943E15A3966CAF7DAF8EAF98
:102920009FAFA397A3968CAD9DADAEADBFADA39762
:102930008BA79CA7ADA7BEA720E030E040E050E405
:102940006BA57CA58DA59EA50E943E15A7966CAF94
:102950007DAF8EAF9FAFA797A7962CAD3DAD4EAD87
:102960005FADA7972B833C834D835E838B819C81D6
:10297000AD81BE818BAB9CABADABBEAB6BA97CA973
:102980008DA99EA9CA59DF4F0FB6F894DEBF0FBEBE
:10299000CDBFDF91CF9108955058BB27AA270E9441
:1029A000E4140C9457160E94491638F00E945016F1
:1029B00020F039F49F3F19F426F40C9446160EF4D7
:1029C000E095E7FB0C944016E92F0E94681658F337
:1029D000BA17620773078407950720F079F4A6F504
:1029E0000C948A160EF4E0950B2EBA2FA02D0B0135
:1029F000B90190010C01CA01A0011124FF27591B44
:102A000099F0593F50F4503E68F11A16F040A22F49
:102A1000232F342F4427585FF3CF469537952795BA
:102A2000A795F0405395C9F77EF41F16BA0B620BB9
:102A3000730B840BBAF09150A1F0FF0FBB1F661F00
:102A4000771F881FC2F70EC0BA0F621F731F841F43
:102A500048F4879577956795B795F7959E3F08F069
:102A6000B0CF9395880F08F09927EE0F979587952B
:102A700008950E941C1608F481E008950E945215E2
:102A80000C9457160E94501658F00E94491640F0B8
:102A900029F45F3F29F00C94401651110C948B16C9
:102AA0000C9446160E94681668F39923B1F35523D7
:102AB00091F3951B550BBB27AA2762177307840751
:102AC00038F09F5F5F4F220F331F441FAA1FA9F3E7
:102AD00035D00E2E3AF0E0E832D091505040E695D5
:102AE000001CCAF72BD0FE2F29D0660F771F881F36
:102AF000BB1F261737074807AB07B0E809F0BB0B29
:102B0000802DBF01FF2793585F4F3AF09E3F51053C
:102B100078F00C9440160C948B165F3FE4F3983ECB
:102B2000D4F3869577956795B795F7959F5FC9F725
:102B3000880F911D9695879597F90895E1E0660FA6
:102B4000771F881FBB1F621773078407BA0720F01F
:102B5000621B730B840BBA0BEE1F88F7E095089588
:102B60000E94701688F09F5798F0B92F9927B75197
:102B7000B0F0E1F0660F771F881F991F1AF0BA9521
:102B8000C9F714C0B13091F00E948A16B1E00895DF
:102B90000C948A16672F782F8827B85F39F0B93FD1
:102BA000CCF3869577956795B395D9F73EF49095D4
:102BB0008095709561957F4F8F4F9F4F0895E89452
:102BC00009C097FB3EF490958095709561957F4F75
:102BD0008F4F9F4F9923A9F0F92F96E9BB27939523
:102BE000F695879577956795B795F111F8CFFAF433
:102BF000BB0F11F460FF1BC06F5F7F4F8F4F9F4F64
:102C000016C0882311F096E911C0772321F09EE8C1
:102C1000872F762F05C0662371F096E8862F70E027
:102C200060E02AF09A95660F771F881FDAF7880F01
:102C30009695879597F90895990F0008550FAA0B57
:102C4000E0E8FEEF16161706E807F907C0F01216BF
:102C50001306E407F50798F0621B730B840B950BC2
:102C600039F40A2661F0232B242B252B21F4089517
:102C70000A2609F4A140A6958FEF811D811D0895B4
:102C800097F99F6780E870E060E008959FEF80EC1F
:102C9000089500240A9416161706180609060895C2
:102CA00000240A9412161306140605060895092E28
:102CB0000394000C11F4882352F0BB0F40F4BF2B97
:102CC00011F460FF04C06F5F7F4F8F4F9F4F0895D7
:102CD00057FD9058440F551F59F05F3F71F04795CD
:102CE000880F97FB991F61F09F3F79F087950895B2
:102CF000121613061406551FF2CF4695F1DF08C0D1
:102D0000161617061806991FF1CF869571056105ED
:102D100008940895E894BB2766277727CB0197F995
:102D200008950E941C1608F48FEF08950E94A916BA
:102D30000C9457160E94491638F00E94501620F045
:102D4000952311F00C9440160C94461611240C9403
:102D50008B160E94681670F3959FC1F3950F50E093
:102D6000551F629FF001729FBB27F00DB11D639F3D
:102D7000AA27F00DB11DAA1F649F6627B00DA11DE3
:102D8000661F829F2227B00DA11D621F739FB00D89
:102D9000A11D621F839FA00D611D221F749F3327F9
:102DA000A00D611D231F849F600D211D822F762F92
:102DB0006A2F11249F5750409AF0F1F088234AF06F
:102DC000EE0FFF1FBB1F661F771F881F91505040DB
:102DD000A9F79E3F510580F00C9440160C948B1679
:102DE0005F3FE4F3983ED4F3869577956795B79562
:102DF000F795E7959F5FC1F7FE2B880F911D96957C
:0A2E0000879597F90895F894FFCF25
:022E0A000100C5
:00000001FF
