:100000000C9472000C9493000C9493000C94930045
:100010000C9493000C9493000C9493000C94930014
:100020000C9493000C9493000C9493000C94930004
:100030000C9493000C9493000C9493000C949300F4
:100040000C9493000C9493000C9493000C949300E4
:100050000C9493000C945E060C9493000C94930003
:100060000C9493000C9493000C9493000C949300C4
:100070000C9493000C9493000C9493000C949300B4
:100080000C9493000C9493000C9493000C949300A4
:100090000C9493000C9493000C9493000C94930094
:1000A0000C9493000C9493000C9493000C94930084
:1000B0000C9493000C9493000C9493000C94930074
:1000C0000C9493000C9493000C9493000C94930064
:1000D0000C9493000C9493000C9493000C94930054
:1000E0000C94930011241FBECFEFD1E2DEBFCDBF31
:1000F00000E00CBF12E0A0E0B2E0ECE0F3E300E0CF
:100100000BBF02C007900D92A230B107D9F722E0D1
:10011000A2E0B2E001C01D92AF30B207E1F70E9449
:10012000EB060C9484190C940000CF93DF93CDB7A9
:10013000DEB784E290E0FC01208184E290E020625E
:10014000FC01208385E290E0FC01208185E290E0C3
:100150002062FC0120830000DF91CF910895CF93AE
:10016000DF93CDB7DEB785E290E0FC01208185E228
:1001700090E02062FC0120830000DF91CF91089580
:10018000CF93DF93CDB7DEB785E290E0FC0120810D
:1001900085E290E02F7DFC0120830000DF91CF916C
:1001A0000895CF93DF93CDB7DEB785E290E0FC01F1
:1001B000308185E290E020E22327FC0120830000CB
:1001C000DF91CF910895CF93DF93CDB7DEB780EA6B
:1001D00090E0FC01108281EA90E024E0FC012083A1
:1001E00084EA90E0FC01118210820000DF91CF913F
:1001F0000895CF93DF93CDB7DEB7A2970FB6F894EB
:10020000DEBF0FBECDBF68EC81E00E94660568ECE2
:1002100082E00E94660580E090E0A8ECB2E4898369
:100220009A83AB83BC8320E030E04AE755E46981E0
:100230007A818B819C810E9417196B8B7C8B8D8BB3
:100240009E8B8B899C89AD89BE898D839E83AF836C
:10025000B88720E030E040E85FE36D817E818F81E8
:1002600098850E94BA1788232CF481E090E09A8741
:10027000898755C020E03FEF4FE757E46D817E81CD
:100280008F8198850E9412198823D9F1D4F120E03A
:1002900030E040E251E469817A818B819C810E9447
:1002A00017196F8B788F898F9A8F8F89988DA98D69
:1002B000BA8D8F87988BA98BBA8B6F85788989893E
:1002C0009A890E9431186B8F7C8F8D8F9E8FAB8D9A
:1002D000BC8DBA87A98710C080E991E09C878B8785
:1002E0008B859C850197F1F79C878B87000089851A
:1002F0009A8501979A87898789859A85009761F7FA
:1003000019C06D817E818F8198850E9431186F8F11
:1003100078A389A39AA38F8D98A19A8789878985C5
:100320009A859E878D878D859E850197F1F79E879B
:100330008D8700000000A2960FB6F894DEBF0FBEB6
:10034000CDBFDF91CF910895CF93DF93CDB7DEB7C7
:10035000A2970FB6F894DEBF0FBECDBF68EC81E068
:100360000E94660566E982E00E94660580E090E0F2
:10037000A8ECB2E489839A83AB83BC8320E030E0AD
:100380004AE755E469817A818B819C810E94171923
:100390006B8B7C8B8D8B9E8B8B899C89AD89BE8969
:1003A0008D839E83AF83B88720E030E040E85FE331
:1003B0006D817E818F8198850E94BA1788232CF4E5
:1003C00081E090E09A87898755C020E03FEF4FE7B2
:1003D00057E46D817E818F8198850E941219882350
:1003E000D9F1D4F120E030E040E251E469817A8132
:1003F0008B819C810E9417196F8B788F898F9A8FC0
:100400008F89988DA98DBA8D8F87988BA98BBA8B80
:100410006F85788989899A890E9431186B8F7C8FC2
:100420008D8F9E8FAB8DBC8DBA87A98710C080E958
:1004300091E09C878B878B859C850197F1F79C8742
:100440008B87000089859A8501979A878987898596
:100450009A85009761F719C06D817E818F8198859B
:100460000E9431186F8F78A389A39AA38F8D98A1CA
:100470009A87898789859A859E878D878D859E85B0
:100480000197F1F79E878D8700000000A2960FB6B6
:10049000F894DEBF0FBECDBFDF91CF910895CF930B
:1004A000DF93CDB7DEB7A2970FB6F894DEBF0FBECD
:1004B000CDBF66E981E00E94660568EC82E00E949B
:1004C000660580E090E0A8ECB2E489839A83AB8370
:1004D000BC8320E030E04AE755E469817A818B8172
:1004E0009C810E9417196B8B7C8B8D8B9E8B8B89CB
:1004F0009C89AD89BE898D839E83AF83B88720E0B8
:1005000030E040E85FE36D817E818F8198850E94B5
:10051000BA1788232CF481E090E09A87898755C028
:1005200020E03FEF4FE757E46D817E818F81988512
:100530000E9412198823D9F1D4F120E030E040E282
:1005400051E469817A818B819C810E9417196F8B9C
:10055000788F898F9A8F8F89988DA98DBA8D8F8783
:10056000988BA98BBA8B6F85788989899A890E9423
:1005700031186B8F7C8F8D8F9E8FAB8DBC8DBA8722
:10058000A98710C080E991E09C878B878B859C852B
:100590000197F1F79C878B87000089859A850197E1
:1005A0009A87898789859A85009761F719C06D8137
:1005B0007E818F8198850E9431186F8F78A389A3DF
:1005C0009AA38F8D98A19A87898789859A859E8716
:1005D0008D878D859E850197F1F79E878D87000019
:1005E0000000A2960FB6F894DEBF0FBECDBFDF911C
:1005F000CF910895CF93DF93CDB7DEB7A2970FB613
:10060000F894DEBF0FBECDBF60E081E00E946605BA
:1006100060E082E00E94660580E090E0A8ECB2E431
:1006200089839A83AB83BC8320E030E04AE755E4BA
:1006300069817A818B819C810E9417196B8B7C8BDD
:100640008D8B9E8B8B899C89AD89BE898D839E8382
:10065000AF83B88720E030E040E85FE36D817E81C2
:100660008F8198850E94BA1788232CF481E090E04E
:100670009A87898755C020E03FEF4FE757E46D81A7
:100680007E818F8198850E9412198823D9F1D4F137
:1006900020E030E040E251E469817A818B819C81E5
:1006A0000E9417196F8B788F898F9A8F8F89988DF9
:1006B000A98DBA8D8F87988BA98BBA8B6F85788916
:1006C00089899A890E9431186B8F7C8F8D8F9E8FBC
:1006D000AB8DBC8DBA87A98710C080E991E09C875B
:1006E0008B878B859C850197F1F79C878B87000012
:1006F00089859A8501979A87898789859A85009740
:1007000061F719C06D817E818F8198850E943118B3
:100710006F8F78A389A39AA38F8D98A19A878987D1
:1007200089859A859E878D878D859E850197F1F7AE
:100730009E878D8700000000A2960FB6F894DEBF5A
:100740000FBECDBFDF91CF910895CF93DF93CDB78B
:10075000DEB7A2970FB6F894DEBF0FBECDBF60EA3A
:1007600081E00E94660564EB82E00E94660580E0FD
:1007700090E0A8ECB2E489839A83AB83BC8320E049
:1007800030E04AE755E469817A818B819C810E943F
:1007900017196B8B7C8B8D8B9E8B8B899C89AD897C
:1007A000BE898D839E83AF83B88720E030E040E828
:1007B0005FE36D817E818F8198850E94BA178823BF
:1007C0002CF481E090E09A87898755C020E03FEFC4
:1007D0004FE757E46D817E818F8198850E941219C1
:1007E0008823D9F1D4F120E030E040E251E469817E
:1007F0007A818B819C810E9417196F8B788F898FEA
:100800009A8F8F89988DA98DBA8D8F87988BA98B98
:10081000BA8B6F85788989899A890E9431186B8F84
:100820007C8F8D8F9E8FAB8DBC8DBA87A98710C0B2
:1008300080E991E09C878B878B859C850197F1F7F8
:100840009C878B87000089859A8501979A8789877D
:1008500089859A85009761F719C06D817E818F81A6
:1008600098850E9431186F8F78A389A39AA38F8DE2
:1008700098A19A87898789859A859E878D878D8596
:100880009E850197F1F79E878D8700000000A29654
:100890000FB6F894DEBF0FBECDBFDF91CF910895A4
:1008A000CF93DF93CDB7DEB7A2970FB6F894DEBF34
:1008B0000FBECDBF64EB81E00E94660560EA82E076
:1008C0000E94660580E090E0A8ECB2E489839A83F8
:1008D000AB83BC8320E030E04AE755E469817A814C
:1008E0008B819C810E9417196B8B7C8B8D8B9E8BCF
:1008F0008B899C89AD89BE898D839E83AF83B887A0
:1009000020E030E040E85FE36D817E818F81988553
:100910000E94BA1788232CF481E090E09A87898797
:1009200055C020E03FEF4FE757E46D817E818F8116
:1009300098850E9412198823D9F1D4F120E030E083
:1009400040E251E469817A818B819C810E94171970
:100950006F8B788F898F9A8F8F89988DA98DBA8D9B
:100960008F87988BA98BBA8B6F85788989899A89AB
:100970000E9431186B8F7C8F8D8F9E8FAB8DBC8DBD
:10098000BA87A98710C080E991E09C878B878B8507
:100990009C850197F1F79C878B87000089859A8554
:1009A00001979A87898789859A85009761F719C089
:1009B0006D817E818F8198850E9431186F8F78A319
:1009C00089A39AA38F8D98A19A87898789859A850B
:1009D0009E878D878D859E850197F1F79E878D87F0
:1009E00000000000A2960FB6F894DEBF0FBECDBF88
:1009F000DF91CF910895CF93DF93CDB7DEB78AE033
:100A000091E0FC0120818AE091E02560FC012083D7
:100A100084E290E0FC01208184E290E02560FC010A
:100A2000208381E091E0FC01208181E091E020645D
:100A3000FC0120838DE290E0FC0120818DE290E0BA
:100A40002860FC01208380EB90E0FC01208180EB9A
:100A500090E02360FC01208380EB90E0FC0120818A
:100A600080EB90E02062FC01208381EB90E0FC01B0
:100A7000208181EB90E02260FC01208380E990E0FE
:100A8000FC01208180E990E02960FC01208380E95D
:100A900090E0FC01208180E990E02068FC01208347
:100AA00081E990E0FC01208181E990E02260FC0175
:100AB000208384EB90E0FC01108288E990E0FC0147
:100AC000118210820000DF91CF910895CF93DF93C0
:100AD0000F920F92CDB7DEB789836A838981813007
:100AE00029F484EB90E02A81FC0120838981823003
:100AF00041F488E990E02A81222F30E0FC01318323
:100B0000208300000F900F90DF91CF910895CF9335
:100B1000DF930F920F92CDB7DEB789836A83898105
:100B20008130B1F48A81813059F58BE091E0FC018C
:100B300020818BE091E02460FC0120838BE091E038
:100B4000FC0120818BE091E02E7FFC01208318C006
:100B500089818230A9F48A81813091F485E290E024
:100B6000FC01208185E290E02460FC01208385E285
:100B700090E0FC01208185E290E02E7FFC01208343
:100B800000000F900F90DF91CF910895CF93DF93E6
:100B9000CDB7DEB761E081E00E94870561E082E0C9
:100BA0000E9487050000DF91CF910895CF93DF93D6
:100BB000CDB7DEB780E390E0FC01208180E390E0D8
:100BC0002F7DFC01208380E390E0FC01208180E305
:100BD00090E02F7BFC0120830000DF91CF910895EE
:100BE000CF93DF93CDB7DEB78FE290E0FC01808139
:100BF000882F90E08072992721E0009709F020E08B
:100C0000822F90E0DF91CF910895CF93DF93CDB7FE
:100C1000DEB78FE290E0FC018081882F90E0807445
:100C2000992721E0009709F020E0822F90E0DF91E2
:100C3000CF910895CF93DF93CDB7DEB783E290E0F5
:100C4000FC018081882F90E08074992721E0009733
:100C500009F020E0822F90E0DF91CF910895CF93AB
:100C6000DF93CDB7DEB70E94C6050E94FB040E9449
:100C7000D6050E94E8100E94E30084E490E022E0A0
:100C8000FC01208385E490E025E0FC01208387E4DB
:100C900090E02CE9FC0120838EE690E0FC012081AD
:100CA0008EE690E02260FC01208378940E949500FB
:100CB0000E94C0000000DF91CF9108951F920F9213
:100CC0000FB60F9211240BB60F922F933F934F93B1
:100CD0005F936F937F938F939F93AF93BF93EF93A4
:100CE000FF93CF93DF93CDB7DEB7809102028823C5
:100CF00041F180910E028F5F80930E0290910E025F
:100D00008BED989F812D1124829586958695837011
:100D10002BE4829F802D1124292F281B822F8823CA
:100D200011F40E94D10080910E02853951F048F0F3
:100D30001092020281E08093030210920E020E9440
:100D4000C000809103028823F9F080910402909101
:100D5000050201969093050280930402809104029B
:100D6000909105028133910579F070F010920302A1
:100D700010920502109204020E94DA0681E090E0CF
:100D800090930102809300020000DF91CF91FF91C8
:100D9000EF91BF91AF919F918F917F916F915F91F3
:100DA0004F913F912F910F900BBE0F900FBE0F9060
:100DB0001F901895CF93DF93CDB7DEB785E490E011
:100DC000FC01208185E490E0287FFC012083000065
:100DD000DF91CF9108950F931F93CF93DF93CDB7FA
:100DE000DEB7C051D1400FB6F894DEBF0FBECDBF05
:100DF0000E942F061A8219820E944111E1966CAF5F
:100E00007DAF8EAF9FAFE197E1966CAD7DAD8EADBE
:100E10009FADE1970E943118CB56DF4F68837983ED
:100E20008A839B83C559D040CB56DF4F88819981F7
:100E3000C559D0409E838D830E944513E5966CAFC3
:100E40007DAF8EAF9FAFE597E5966CAD7DAD8EAD76
:100E50009FADE5970E943118C756DF4F68837983AD
:100E60008A839B83C959D040C756DF4FA881B98177
:100E7000C959D040B887AF830E944915E9966CAF35
:100E80007DAF8EAF9FAFE997E9966CAD7DAD8EAD2E
:100E90009FADE9970E943118C356DF4F688379836D
:100EA0008A839B83CD59D040C356DF4FE881F981B7
:100EB000CD59D040FA87E9870E94F0059093090246
:100EC000809308020E94050690930B0280930A0209
:100ED0000E941A06009709F4BDC089819A81009783
:100EE00009F0B8C081E090E09A83898380E090E0C7
:100EF000A8E4B2E48B879C87AD87BE8720E030E012
:100F00004AE755E46B857C858D859E850E9417197F
:100F1000CF55DF4F688379838A839B83C15AD04042
:100F2000CF55DF4F88819981AA81BB81C15AD040BA
:100F30008F87988BA98BBA8B20E030E040E85FE385
:100F40006F85788989899A890E94BA1788232CF439
:100F500081E090E09C8B8B8B72C020E03FEF4FE7ED
:100F600057E46F85788989899A890E9412198823A4
:100F700009F00CF44EC020E030E040E251E46B8513
:100F80007C858D859E850E941719CB55DF4F688320
:100F900079838A839B83C55AD040CB55DF4F8881A4
:100FA0009981AA81BB81C55AD040ED968CAF9DAF87
:100FB000AEAFBFAFED97ED966CAD7DAD8EAD9FAD95
:100FC000ED970E943118C755DF4F688379838A8374
:100FD0009B83C95AD040C755DF4FA881B981C95AF0
:100FE000D040BC8BAB8B10C080E991E09E8B8D8B89
:100FF0008D899E890197F1F79E8B8D8B00008B89DF
:101000009C8901979C8B8B8B8B899C89009761F7BE
:1010100021C06F85788989899A890E943118C355C2
:10102000DF4F688379838A839B83CD5AD040C35531
:10103000DF4FE881F981CD5AD040FC8BEB8B8B8957
:101040009C89988F8F8B8F89988D0197F1F7988F56
:101050008F8B00008D819E818E30910539F030F0AC
:101060008F8198858E30910509F0F0F4809103020C
:101070008823D1F4809102028823B1F489819A8176
:10108000009791F00E94FA02109201021092000261
:1010900081E08093020285E490E0DC012C9185E4FC
:1010A00090E02560FC01208389859A858E3091052A
:1010B00009F078F40E94FA021092010210920002E4
:1010C0000E94C00081E090E09093070280930602A6
:1010D0000AC0109207021092060281E090E09093FD
:1010E00001028093000289859A858D31910511F066
:1010F00008F0E7C089859A858F30910509F008F4DA
:10110000E0C01C821B82D6C089E390E0DC018C9198
:10111000882F90E081709927009709F4C6C084EA6F
:1011200090E020E43CE0FC013183208389E390E0FF
:1011300021E0DC012C930E94D10080E090E0A8EC3B
:10114000B2E4898F9A8FAB8FBC8F20E030E04AE702
:1011500055E4698D7A8D8B8D9C8D0E941719CF5423
:10116000DF4F688379838A839B83C15BD040CF54F0
:10117000DF4F88819981AA81BB81C15BD0408D8F6F
:101180009E8FAF8FB8A320E030E040E85FE36D8D25
:101190007E8D8F8D98A10E94BA1788232CF481E050
:1011A00090E09AA389A376C020E03FEF4FE757E491
:1011B0006D8D7E8D8F8D98A10E941219882309F064
:1011C0000CF452C020E030E040E251E4698D7A8DA9
:1011D0008B8D9C8D0E941719CB54DF4F68837983C8
:1011E0008A839B83C55BD040CB54DF4F8881998134
:1011F000AA81BB81C55BD040C358DF4F88839983E8
:10120000AA83BB83CD57D040C358DF4F6881798113
:101210008A819B81CD57D0400E943118C754DF4F3F
:10122000688379838A839B83C95BD040C754DF4F2F
:10123000A881B981C95BD040BAA3A9A310C080E935
:1012400091E09CA38BA38BA19CA10197F1F79CA398
:101250008BA3000089A19AA101979AA389A389A1D0
:101260009AA1009761F721C06D8D7E8D8F8D98A119
:101270000E943118C354DF4F688379838A839B832C
:10128000CD5BD040C354DF4FE881F981CD5BD040C6
:10129000FAA3E9A389A19AA19EA38DA38DA19EA1E2
:1012A0000197F1F79EA38DA300008B819C8101968D
:1012B0009C838B838B819C818130910509F00CF498
:1012C00023CF8091080290910902009709F4DEC0B3
:1012D00080910A0290910B02009709F4D7C0809187
:1012E0000202882309F0D2C0809106029091070281
:1012F000009709F0CBC08091000290910102009705
:1013000009F4C4C089819A81009709F4BFC00E9482
:10131000F90010920D0210920C0280E090E0A8EC0F
:10132000B2E48FA398A7A9A7BAA720E030E04AE7C4
:1013300055E46FA178A589A59AA50E941719CF53E6
:10134000DF4F688379838A839B83C15CD040CF530E
:10135000DF4F88819981AA81BB81C15CD0408BA776
:101360009CA7ADA7BEA720E030E040E85FE36BA5F7
:101370007CA58DA59EA50E94BA1788232CF481E038
:1013800090E098AB8FA776C020E03FEF4FE757E49F
:101390006BA57CA58DA59EA50E941219882309F036
:1013A0000CF452C020E030E040E251E46FA178A597
:1013B00089A59AA50E941719CB53DF4F68837983BB
:1013C0008A839B83C55CD040CB53DF4F8881998152
:1013D000AA81BB81C55CD040CF57DF4F88839983FA
:1013E000AA83BB83C158D040CF57DF4F6881798132
:1013F0008A819B81C158D0400E943118C753DF4F6A
:10140000688379838A839B83C95CD040C753DF4F4D
:10141000A881B981C95CD040B8ABAFA710C080E942
:1014200091E09AAB89AB89A99AA90197F1F79AAB98
:1014300089AB00008FA598A9019798AB8FA78FA5BE
:1014400098A9009761F721C06BA57CA58DA59EA5E5
:101450000E943118C353DF4F688379838A839B834B
:10146000CD5CD040C353DF4FE881F981CD5CD040E3
:10147000F8ABEFA78FA598A99CAB8BAB8BA99CA9C8
:101480000197F1F79CAB8BAB00007AC48091080206
:1014900090910902009709F0F2C080910A029091A0
:1014A0000B02009709F4EBC080910202882309F037
:1014B000E6C08091060290910702009709F0DFC014
:1014C0008091000290910102009709F4D8C08981AF
:1014D0009A81009709F4D3C00E94500480E090E004
:1014E000A8ECB2E48DAB9EABAFABB8AF20E030E080
:1014F0004AE755E46DA97EA98FA998AD0E941719F6
:10150000CF52DF4F688379838A839B83C15DD0404C
:10151000CF52DF4F88819981AA81BB81C15DD040C4
:1015200089AF9AAFABAFBCAF20E030E040E85FE3FB
:1015300069AD7AAD8BAD9CAD0E94BA1788232CF4AF
:1015400081E090E09EAF8DAF81C020E03FEF4FE79C
:1015500057E469AD7AAD8BAD9CAD0E94121988231A
:1015600009F00CF45DC020E030E040E251E46DA9E8
:101570007EA98FA998AD0E941719CB52DF4F6883BF
:1015800079838A839B83C55DD040CB52DF4F8881AE
:101590009981AA81BB81C55DD040CB57DF4F88833D
:1015A0009983AA83BB83C558D040CB57DF4F68814E
:1015B00079818A819B81C558D0400E943118C752D9
:1015C000DF4F688379838A839B83C95DD040C7528C
:1015D000DF4FA881B981C95DD040BEAFADAF1BC0A0
:1015E00020E931E0CE01CF96FC0131832083CE018A
:1015F000CF96DC018D919C9111970197F1F79E0197
:10160000215C3F4FF9019183808300008DAD9EAD39
:1016100001979EAF8DAF8DAD9EAD009709F72EC09F
:1016200069AD7AAD8BAD9CAD0E943118C352DF4FCE
:10163000688379838A839B83CD5DD040C352DF4F1B
:1016400088819981CD5DD0409EAF8DAFCE018F5BFB
:101650009F4F2DAD3EADDC012D933C93CE018F5BB2
:101660009F4FFC01808191810197F1F79E012F5BD3
:101670003F4FD90111969C938E93000081C38091B6
:10168000080290910902009709F42EC180910A0284
:1016900090910B02009709F027C1809102028823E4
:1016A00009F022C18091060290910702009709F08B
:1016B0001BC18091000290910102009709F414C1AE
:1016C00089819A81009709F40FC10E94A5039E01A8
:1016D0002D5B3F4F80E090E0A8ECB2E4F9018083FD
:1016E0009183A283B3838E01095B1F4FCE018D5B73
:1016F0009F4F20E030E04AE755E4DC016D917D9199
:101700008D919C910E941719CF51DF4F6883798387
:101710008A839B83C15ED040CF51DF4F88819981FE
:10172000AA81BB81C15ED040F80180839183A283EE
:10173000B383CE01895B9F4F20E030E040E85FE358
:10174000DC016D917D918D919C910E94BA17882347
:101750004CF4CE01855B9F4F21E030E0FC013183EA
:101760002083A5C0CE01895B9F4F20E03FEF4FE76C
:1017700057E4DC016D917D918D919C910E9412192D
:10178000882309F00CF475C0CE018D5B9F4F20E0DB
:1017900030E040E251E4FC016081718182819381FB
:1017A0000E941719CB51DF4F688379838A839B830B
:1017B000C55ED040CB51DF4F88819981AA81BB8122
:1017C000C55ED040C757DF4F88839983AA83BB8308
:1017D000C958D0408E01055B1F4FC757DF4F688146
:1017E00079818A819B81C958D0400E943118C751A4
:1017F000DF4F688379838A839B83C95ED040C7515A
:10180000DF4FE881F981C95ED040D8011196FC9381
:10181000EE9326C0CE01835B9F4F20E931E0DC01CF
:101820002D933C93CE01835B9F4FFC01808191817E
:101830000197F1F79E01235B3F4FD9018D939C9354
:101840000000CE01855B9F4F9E01255B3F4FF90154
:101850002081318121503109DC0111963C932E9376
:10186000CE01855B9F4FFC0180819181009791F6AD
:101870003AC08E01055B1F4FCE01895B9F4FDC0193
:101880006D917D918D919C910E943118C351DF4FD4
:10189000688379838A839B83CD5ED040C351DF4FB9
:1018A00088819981CD5ED040F80191838083CE01FB
:1018B000815B9F4F9E01255B3F4FD9012D913C914C
:1018C000FC0131832083CE01815B9F4FDC018D9130
:1018D0009C9111970197F1F79E01215B3F4FF90110
:1018E0009183808300004CC280910802909109028C
:1018F000009709F081CA80910A0290910B0200972B
:1019000009F07ACA80910202882309F075CA809191
:10191000060290910702009709F06ECA80910002BA
:1019200090910102009709F467CA89819A81009712
:1019300009F462CA80910C0290910D02009709F09F
:101940005BCA9E01215A3F4F80E090E0AAEFB4E4C9
:10195000F90180839183A283B3838E010D591F4FB8
:10196000CE01815A9F4F20E030E04AE755E4DC0188
:101970006D917D918D919C910E941719CF50DF4FF1
:10198000688379838A839B83C15FD040CF50DF4FC8
:1019900088819981AA81BB81C15FD040F801808391
:1019A0009183A283B383CE018D599F4F20E030E015
:1019B00040E85FE3DC016D917D918D919C910E94E7
:1019C000BA1788234CF4CE0189599F4F21E030E0AB
:1019D000FC0131832083A5C0CE018D599F4F20E0AB
:1019E0003FEF4FE757E4DC016D917D918D919C9124
:1019F0000E941219882309F00CF475C0CE01815A97
:101A00009F4F20E030E040E251E4FC0160817181B1
:101A1000828193810E941719CB50DF4F68837983AD
:101A20008A839B83C55FD040CB50DF4F88819981EB
:101A3000AA81BB81C55FD040CF56DF4F8883998391
:101A4000AA83BB83C159D0408E0109591F4FCF567D
:101A5000DF4F688179818A819B81C159D0400E9482
:101A60003118C750DF4F688379838A839B83C95FAE
:101A7000D040C750DF4FE881F981C95FD040D8011D
:101A80001196FC93EE9326C0CE0187599F4F20E913
:101A900031E0DC012D933C93CE0187599F4FFC012F
:101AA000808191810197F1F79E0127593F4FD9011C
:101AB0008D939C930000CE0189599F4F9E01295917
:101AC0003F4FF9012081318121503109DC0111960C
:101AD0003C932E93CE0189599F4FFC0180819181C7
:101AE000009791F639C08E0109591F4FCE018D59CB
:101AF0009F4FDC016D917D918D919C910E943118D9
:101B0000C350DF4F688379838A839B83CD5FD04046
:101B1000C350DF4F88819981CD5FD040F801918318
:101B20008083CE0185599F4F9E0129593F4FD9018E
:101B30002D913C91FC0131832083CE0185599F4F2B
:101B4000DC018D919C910197F1F79E0125593F4F42
:101B5000F9019183808300000E944F0281E090E0B0
:101B600090930D0280930C029E012F5A3F4F80E00C
:101B700090E0A8ECB2E4F90180839183A283B3835F
:101B80008E010B5A1F4FCE018F5A9F4F20E030E03D
:101B90004AE755E4DC016D917D918D919C910E9405
:101BA0001719CF5FDE4F688379838A839B83C15087
:101BB000D140CF5FDE4F88819981AA81BB81C1501E
:101BC000D140F80180839183A283B383CE018B5AE5
:101BD0009F4F20E030E040E85FE3DC016D917D91B4
:101BE0008D919C910E94BA1788234CF4CE01875A9C
:101BF0009F4F21E030E0FC0131832083A5C0CE015E
:101C00008B5A9F4F20E03FEF4FE757E4DC016D9187
:101C10007D918D919C910E941219882309F00CF4FA
:101C200075C0CE018F5A9F4F20E030E040E251E472
:101C3000FC0160817181828193810E941719CB5FC1
:101C4000DE4F688379838A839B83C550D140CB5F05
:101C5000DE4F88819981AA81BB81C550D140C3578D
:101C6000DF4F88839983AA83BB83CD58D0408E01F0
:101C7000075A1F4FC357DF4F688179818A819B8143
:101C8000CD58D0400E943118C75FDE4F68837983FA
:101C90008A839B83C950D140C75FDE4FE881F981B9
:101CA000C950D140D8011196FC93EE9326C0CE01C5
:101CB000855A9F4F20E931E0DC012D933C93CE0102
:101CC000855A9F4FFC01808191810197F1F79E0118
:101CD000255A3F4FD9018D939C930000CE01875A1E
:101CE0009F4F9E01275A3F4FF9012081318121509A
:101CF0003109DC0111963C932E93CE01875A9F4FF8
:101D0000FC0180819181009791F63AC08E01075ABB
:101D10001F4FCE018B5A9F4FDC016D917D918D91AC
:101D20009C910E943118C35FDE4F688379838A8358
:101D30009B83CD50D140C35FDE4F88819981CD50C8
:101D4000D140F80191838083CE01835A9F4F9E0139
:101D5000275A3F4FD9012D913C91FC0131832083BB
:101D6000CE01835A9F4FDC018D919C911197019771
:101D7000F1F79E01235A3F4FF901918380830000C0
:101D80003BC88F929F92AF92BF92CF92DF92EF9219
:101D9000FF920F931F93CF93DF93CDB7DEB7629778
:101DA0000FB6F894DEBF0FBECDBF9A8389834B83F5
:101DB0005C836D837E830F83188729873A87CB8660
:101DC000DC86ED86FE868F86988AA98ABA8A298162
:101DD0003A818B819C81AD81BE81F90180839183A1
:101DE000A283B38329813A818F819885A985BA8599
:101DF000F90184839583A683B78329813A818B85F2
:101E00009C85AD85BE85F90180879187A287B387C0
:101E100089819A81FC011486158616861786898128
:101E20009A81FC01108A118A128A138A89819A8107
:101E3000FC01148A158A168A178A29813A818F85AE
:101E40009889A989BA89F901848F958FA68FB78F50
:101E500029813A818AA19BA1ACA1BDA1F90180A3EE
:101E600091A3A2A3B3A389819A81FC01108E118E44
:101E7000128E138E000062960FB6F894DEBF0FBE6E
:101E8000CDBFDF91CF911F910F91FF90EF90DF9029
:101E9000CF90BF90AF909F908F900895CF93DF9396
:101EA000CDB7DEB7C655D1090FB6F894DEBF0FBE69
:101EB000CDBF9A8789874B875C876D877E878985A9
:101EC0009A85DC0154962D913D914D915C915797E7
:101ED0002F87388B498B5A8B2B853C854D855E85AA
:101EE0006F85788989899A890E944D176FAB78AF81
:101EF00089AF9AAF2FA938AD49AD5AAD29833A833E
:101F00004B835C8389859A85DC0150962D913D91A8
:101F10004D915C9153972B8B3C8B4D8B5E8B298124
:101F20003A814B815C816B897C898D899E890E9475
:101F30004E176BAF7CAF8DAF9EAF8BAD9CADADAD93
:101F4000BEAD29853A85F901808B918BA28BB38B2D
:101F500089859A85FC0184859585A685B7859C0130
:101F6000AD0169817A818B819C810E944D172396F6
:101F70006CAF7DAF8EAF9FAF239723962CAD3DAD59
:101F80004EAD5FAD23972D833E834F835887898560
:101F90009A85DC012D913D914D915C912F8B388F6D
:101FA000498F5A8F29813A814B815C816F89788D65
:101FB000898D9A8D0E94171927966CAF7DAF8EAFD1
:101FC0009FAF279727962CAD3DAD4EAD5FAD2797C0
:101FD0002B8F3C8F4D8F5E8F89859A85DC011496FF
:101FE0002D913D914D915C9117972F8F38A349A367
:101FF0005AA389859A85FC0180899189A289B38930
:102000009C01AD016F8D78A189A19AA10E94171939
:102010002B966CAF7DAF8EAF9FAF2B972B968CAD71
:102020009DADAEADBFAD2B979C01AD016B8D7C8D91
:102030008D8D9E8D0E944E172F966CAF7DAF8EAF0B
:102040009FAF2F972F962CAD3DAD4EAD5FAD2F9727
:102050002BA33CA34DA35EA389859A85DC0118962A
:102060002D913D914D915C911B972FA338A749A7C6
:102070005AA72D813E814F8158856FA178A589A5EA
:102080009AA50E94171963966CAF7DAF8EAF9FAF74
:10209000639763968CAD9DADAEADBFAD63979C016C
:1020A000AD016BA17CA18DA19EA10E944E176796E8
:1020B0006CAF7DAF8EAF9FAF679767968CAD9DADD0
:1020C000AEADBFAD679729853A85F901808F918FB5
:1020D000A28FB38F89859A85DC0158962D913D9109
:1020E0004D915C915B972BA73CA74DA75EA7898577
:1020F0009A85FC0180A191A1A2A1B3A19C01AD018F
:102100006BA57CA58DA59EA50E941219882381F040
:102110007CF089859A85FC0180A191A1A2A1B3A13F
:1021200029853A85F901808F918FA28FB38F2CC0BA
:1021300089859A85DC0158962D913D914D915C9150
:102140005B972FA738AB49AB5AAB89859A85FC01C1
:10215000848D958DA68DB78D9C01AD016FA578A955
:1021600089A99AA90E94BA17882374F489859A8547
:10217000FC01848D958DA68DB78D29853A85F90151
:10218000808F918FA28FB38F29853A8589819A811B
:10219000AB81BC81F90184879587A687B78789853C
:1021A0009A85FC01808D918DA28DB38D8BAB9CABFC
:1021B000ADABBEAB6BA97CA98DA99EA9CA5ADF4F56
:1021C0000FB6F894DEBF0FBECDBFDF91CF9108955B
:1021D000CF93DF93CDB7DEB781E091E0FC012081A2
:1021E00081E091E02160FC01208381E091E0FC012D
:1021F000208181E091E02D7FFC01208382E091E04D
:10220000FC01208182E091E02E7FFC01208384E0AC
:1022100091E0FC01208184E091E02260FC012083B8
:1022200084E091E0FC01208184E091E02E7FFC01BC
:10223000208385E091E0FC01208185E091E02D7F05
:10224000FC01208381E091E0FC01208181E091E0AC
:102250002061FC01208381E091E0FC01208181E08C
:1022600091E02F7DFC01208382E091E0FC01208140
:1022700082E091E02F7EFC0120830000DF91CF916E
:102280000895CF93DF93CDB7DEB7C656D1090FB609
:10229000F894DEBF0FBECDBF82E091E0DC012C914F
:1022A00082E091E02160FC01208380E090E0A0E2E8
:1022B000B1E48F839887A987BA872BEA3AEA4AEA7A
:1022C00050E46F81788589859A850E9417196FABD4
:1022D00078AF89AF9AAF2FA938AD49AD5AAD2B87EA
:1022E0003C874D875E8720E030E040E850E46F8116
:1022F000788589859A850E9417196BAF7CAF8DAF61
:102300009EAF8BAD9CADADADBEAD8F87988BA98BCD
:10231000BA8B20E030E040E85FE36B857C858D85FB
:102320009E850E94BA1788231CF481E08B8BFBC02A
:1023300020E03FEF4FE757E46F85788989899A89D4
:102340000E941219882309F00CF4B2C020E030E09A
:102350004AE754E46F81788589859A850E94BF1782
:1023600023966CAF7DAF8EAF9FAF239723968CAD36
:102370009DADAEADBFAD23978C8B9D8BAE8BBF8BD0
:1023800020E030E04AE755E46C897D898E899F8999
:102390000E94171927966CAF7DAF8EAF9FAF27971E
:1023A00027962CAD3DAD4EAD5FAD2797288F398F69
:1023B0004A8F5B8F20E030E040E85FE3688D798DE5
:1023C0008A8D9B8D0E94BA1788232CF481E090E0BF
:1023D0009D8F8C8F62C020E03FEF4FE757E4688D00
:1023E000798D8A8D9B8D0E941219882309F00CF437
:1023F00042C020E030E040E251E46C897D898E8962
:102400009F890E9417192B966CAF7DAF8EAF9FAF3F
:102410002B972B968CAD9DADAEADBFAD2B978FA7F7
:1024200098ABA9ABBAAB6FA578A989A99AA90E9464
:1024300031182F966CAF7DAF8EAF9FAF2F972D9633
:10244000AEADBFAD2D97BD8FAC8F10C080E991E0D0
:102450009F8F8E8F8E8D9F8D0197F1F79F8F8E8F1F
:1024600000008C8D9D8D01979D8F8C8F8C8D9D8D07
:10247000009761F758C0688D798D8A8D9B8D0E9479
:10248000311863966CAF7DAF8EAF9FAF6397619647
:10249000EEADFFAD6197FD8FEC8F8C8D9D8D99A377
:1024A00088A388A199A10197F1F799A388A33BC0BC
:1024B00020E030E04FE753E46B857C858D859E8579
:1024C0000E9412198823F9F0F4F06F8578898989C0
:1024D0009A890E94311867966CAF7DAF8EAF9FAF1F
:1024E000679765962EAD3FAD65973BA32AA38AA15A
:1024F0009BA19DA38CA38CA19DA10197F1F79DA306
:102500008CA3000017C06B857C858D859E850E94FD
:1025100031186B966CAF7DAF8EAF9FAF6B9768969F
:102520003FAD68973B8B8B898EA38EA18A95F1F77F
:102530008EA3000082E091E0DC012C9182E091E02A
:102540002E7FFC012083000080E091E0DC018C9173
:10255000882F90E0827099270097B1F384E890E08B
:10256000FC011182108281E890E0DC012C9181E86D
:1025700090E02260FC0120830BC084E890E0DC0145
:102580008D919C9111978036BAEE9B0709F058F413
:1025900080E091E0FC018081882F90E08270992793
:1025A000009759F701C0000081E890E0DC012C9110
:1025B00081E890E02D7FFC01208384E890E0DC013D
:1025C0008D919C919A83898389819A819C0140E0B5
:1025D00050E06F962CAF3DAF4EAF5FAF6F976F96E9
:1025E0006CAD7DAD8EAD9FAD6F970E9460186FA3EF
:1025F00078A789A79AA720E030E048E652E46FA1C7
:1026000078A589A59AA50E94BF17A3966CAF7DAF48
:102610008EAF9FAFA397A3968CAD9DADAEADBFAD72
:10262000A3978BA79CA7ADA7BEA720E030E040E012
:1026300050E46BA57CA58DA59EA50E94BF17A7960B
:102640006CAF7DAF8EAF9FAFA797A7962CAD3DAD7A
:102650004EAD5FADA7972B833C834D835E838B810B
:102660009C81AD81BE818BAB9CABADABBEAB6BA98E
:102670007CA98DA99EA9CA59DF4F0FB6F894DEBF79
:102680000FBECDBFDF91CF910895CF93DF93CDB72C
:10269000DEB7C656D1090FB6F894DEBF0FBECDBF68
:1026A00085E091E0DC012C9185E091E02260FC0165
:1026B000208380E090E0A0E2B1E48F839887A9872F
:1026C000BA872BEA3AEA4AEA50E46F81788589852D
:1026D0009A850E9417196FAB78AF89AF9AAF2FA96F
:1026E00038AD49AD5AAD2B873C874D875E8720E0DA
:1026F00030E040E850E46F81788589859A850E94B2
:1027000017196BAF7CAF8DAF9EAF8BAD9CADADADF0
:10271000BEAD8F87988BA98BBA8B20E030E040E864
:102720005FE36B857C858D859E850E94BA17882323
:102730001CF481E08B8BFBC020E03FEF4FE757E4B8
:102740006F85788989899A890E941219882309F0EE
:102750000CF4B2C020E030E04AE754E46F817885A1
:1027600089859A850E94BF1723966CAF7DAF8EAF87
:102770009FAF239723968CAD9DADAEADBFAD239794
:102780008C8B9D8BAE8BBF8B20E030E04AE755E40D
:102790006C897D898E899F890E94171927966CAF55
:1027A0007DAF8EAF9FAF279727962CAD3DAD4EAD39
:1027B0005FAD2797288F398F4A8F5B8F20E030E0FD
:1027C00040E85FE3688D798D8A8D9B8D0E94BA17F2
:1027D00088232CF481E090E09D8F8C8F62C020E0F4
:1027E0003FEF4FE757E4688D798D8A8D9B8D0E946E
:1027F0001219882309F00CF442C020E030E040E2D6
:1028000051E46C897D898E899F890E9417192B96C6
:102810006CAF7DAF8EAF9FAF2B972B968CAD9DADE0
:10282000AEADBFAD2B978FA798ABA9ABBAAB6FA5D9
:1028300078A989A99AA90E9431182F966CAF7DAF0B
:102840008EAF9FAF2F972D96AEADBFAD2D97BD8F9D
:10285000AC8F10C080E991E09F8F8E8F8E8D9F8D01
:102860000197F1F79F8F8E8F00008C8D9D8D0197C2
:102870009D8F8C8F8C8D9D8D009761F758C0688DD2
:10288000798D8A8D9B8D0E94311863966CAF7DAFD8
:102890008EAF9FAF63976196EEADFFAD6197FD8FF1
:1028A000EC8F8C8D9D8D99A388A388A199A1019708
:1028B000F1F799A388A33BC020E030E04FE753E451
:1028C0006B857C858D859E850E9412198823F9F081
:1028D000F4F06F85788989899A890E943118679602
:1028E0006CAF7DAF8EAF9FAF679765962EAD3FAD56
:1028F00065973BA32AA38AA19BA19DA38CA38CA12E
:102900009DA10197F1F79DA38CA3000017C06B85D3
:102910007C858D859E850E9431186B966CAF7DAF4E
:102920008EAF9FAF6B9768963FAD68973B8B8B8957
:102930008EA38EA18A95F1F78EA3000085E091E029
:10294000DC012C9185E091E02D7FFC0120830000CB
:1029500083E091E0DC018C91882F90E081709927D1
:102960000097B1F384E890E0FC011182108281E8C5
:1029700090E0DC012C9181E890E02260FC01208352
:102980000BC084E890E0DC018D919C91119780361A
:10299000BAEE9B0709F058F483E091E0FC018081D6
:1029A000882F90E081709927009759F701C00000A7
:1029B00081E890E0DC012C9181E890E02D7FFC0122
:1029C000208384E890E0DC018D919C919A83898337
:1029D00089819A819C0140E050E06F962CAF3DAF19
:1029E0004EAF5FAF6F976F966CAD7DAD8EAD9FAD07
:1029F0006F970E9460186FA378A789A79AA720E015
:102A000030E048E652E46FA178A589A59AA50E9416
:102A1000BF17A3966CAF7DAF8EAF9FAFA397A39662
:102A20008CAD9DADAEADBFADA3978BA79CA7ADA759
:102A3000BEA720E030E040E050E46BA57CA58DA56A
:102A40009EA50E94BF17A7966CAF7DAF8EAF9FAFBC
:102A5000A797A7962CAD3DAD4EAD5FADA7972B8345
:102A60003C834D835E838B819C81AD81BE818BAB2A
:102A70009CABADABBEAB6BA97CA98DA99EA9CA5975
:102A8000DF4F0FB6F894DEBF0FBECDBFDF91CF9101
:102A90000895CF93DF93CDB7DEB7C656D1090FB6F1
:102AA000F894DEBF0FBECDBF82E091E0DC012C9137
:102AB00082E091E02061FC01208380E090E0A0E2D0
:102AC000B1E48F839887A987BA872BEA3AEA4AEA62
:102AD00050E46F81788589859A850E9417196FABBC
:102AE00078AF89AF9AAF2FA938AD49AD5AAD2B87D2
:102AF0003C874D875E8720E030E040E850E46F81FE
:102B0000788589859A850E9417196BAF7CAF8DAF48
:102B10009EAF8BAD9CADADADBEAD8F87988BA98BB5
:102B2000BA8B20E030E040E85FE36B857C858D85E3
:102B30009E850E94BA1788231CF481E08B8BFBC012
:102B400020E03FEF4FE757E46F85788989899A89BC
:102B50000E941219882309F00CF4B2C020E030E082
:102B60004AE754E46F81788589859A850E94BF176A
:102B700023966CAF7DAF8EAF9FAF239723968CAD1E
:102B80009DADAEADBFAD23978C8B9D8BAE8BBF8BB8
:102B900020E030E04AE755E46C897D898E899F8981
:102BA0000E94171927966CAF7DAF8EAF9FAF279706
:102BB00027962CAD3DAD4EAD5FAD2797288F398F51
:102BC0004A8F5B8F20E030E040E85FE3688D798DCD
:102BD0008A8D9B8D0E94BA1788232CF481E090E0A7
:102BE0009D8F8C8F62C020E03FEF4FE757E4688DE8
:102BF000798D8A8D9B8D0E941219882309F00CF41F
:102C000042C020E030E040E251E46C897D898E8949
:102C10009F890E9417192B966CAF7DAF8EAF9FAF27
:102C20002B972B968CAD9DADAEADBFAD2B978FA7DF
:102C300098ABA9ABBAAB6FA578A989A99AA90E944C
:102C400031182F966CAF7DAF8EAF9FAF2F972D961B
:102C5000AEADBFAD2D97BD8FAC8F10C080E991E0B8
:102C60009F8F8E8F8E8D9F8D0197F1F79F8F8E8F07
:102C700000008C8D9D8D01979D8F8C8F8C8D9D8DEF
:102C8000009761F758C0688D798D8A8D9B8D0E9461
:102C9000311863966CAF7DAF8EAF9FAF639761962F
:102CA000EEADFFAD6197FD8FEC8F8C8D9D8D99A35F
:102CB00088A388A199A10197F1F799A388A33BC0A4
:102CC00020E030E04FE753E46B857C858D859E8561
:102CD0000E9412198823F9F0F4F06F8578898989A8
:102CE0009A890E94311867966CAF7DAF8EAF9FAF07
:102CF000679765962EAD3FAD65973BA32AA38AA142
:102D00009BA19DA38CA38CA19DA10197F1F79DA3ED
:102D10008CA3000017C06B857C858D859E850E94E5
:102D200031186B966CAF7DAF8EAF9FAF6B97689687
:102D30003FAD68973B8B8B898EA38EA18A95F1F767
:102D40008EA3000082E091E0DC012C9182E091E012
:102D50002F7EFC012083000080E091E0DC018C915B
:102D6000882F90E0807299270097B1F384E890E073
:102D7000FC011182108281E890E0DC012C9181E855
:102D800090E02260FC0120830BC084E890E0DC012D
:102D90008D919C9111978036BAEE9B0709F058F4FB
:102DA00080E091E0FC018081882F90E0807299277B
:102DB000009759F701C0000081E890E0DC012C91F8
:102DC00081E890E02D7FFC01208384E890E0DC0125
:102DD0008D919C919A83898389819A819C0140E09D
:102DE00050E06F962CAF3DAF4EAF5FAF6F976F96D1
:102DF0006CAD7DAD8EAD9FAD6F970E9460186FA3D7
:102E000078A789A79AA720E030E048E652E46FA1AE
:102E100078A589A59AA50E94BF17A3966CAF7DAF30
:102E20008EAF9FAFA397A3968CAD9DADAEADBFAD5A
:102E3000A3978BA79CA7ADA7BEA720E030E040E0FA
:102E400050E46BA57CA58DA59EA50E94BF17A796F3
:102E50006CAF7DAF8EAF9FAFA797A7962CAD3DAD62
:102E60004EAD5FADA7972B833C834D835E838B81F3
:102E70009C81AD81BE818BAB9CABADABBEAB6BA976
:102E80007CA98DA99EA9CA59DF4F0FB6F894DEBF61
:102E90000FBECDBFDF91CF9108955058BB27AA2711
:102EA0000E9465170C94D8180E94CA1838F00E9426
:102EB000D11820F039F49F3F19F426F40C94C71868
:102EC0000EF4E095E7FB0C94C118E92F0E94E91875
:102ED00058F3BA17620773078407950720F079F44F
:102EE000A6F50C940B190EF4E0950B2EBA2FA02D1D
:102EF0000B01B90190010C01CA01A0011124FF27A7
:102F0000591B99F0593F50F4503E68F11A16F040A1
:102F1000A22F232F342F4427585FF3CF46953795A0
:102F20002795A795F0405395C9F77EF41F16BA0B65
:102F3000620B730B840BBAF09150A1F0FF0FBB1F13
:102F4000661F771F881FC2F70EC0BA0F621F731F5C
:102F5000841F48F4879577956795B795F7959E3FB9
:102F600008F0B0CF9395880F08F09927EE0F97954A
:102F7000879508950E949D1808F481E008950E94A5
:102F8000D3170C94D8180E94D11858F00E94CA1870
:102F900040F029F45F3F29F00C94C11851110C94B2
:102FA0000C190C94C7180E94E91868F39923B1F31F
:102FB000552391F3951B550BBB27AA27621773075F
:102FC000840738F09F5F5F4F220F331F441FAA1FF3
:102FD000A9F335D00E2E3AF0E0E832D091505040AF
:102FE000E695001CCAF72BD0FE2F29D0660F771F5D
:102FF000881FBB1F261737074807AB07B0E809F043
:10300000BB0B802DBF01FF2793585F4F3AF09E3FC7
:10301000510578F00C94C1180C940C195F3FE4F33F
:10302000983ED4F3869577956795B795F7959F5F0A
:10303000C9F7880F911D9695879597F90895E1E056
:10304000660F771F881FBB1F621773078407BA07B5
:1030500020F0621B730B840BBA0BEE1F88F7E09510
:1030600008950E94F11888F09F5798F0B92F99277A
:10307000B751B0F0E1F0660F771F881F991F1AF063
:10308000BA95C9F714C0B13091F00E940B19B1E0A4
:1030900008950C940B19672F782F8827B85F39F0A3
:1030A000B93FCCF3869577956795B395D9F73EF4FC
:1030B00090958095709561957F4F8F4F9F4F0895A4
:1030C000E89409C097FB3EF49095809570956195C2
:1030D0007F4F8F4F9F4F9923A9F0F92F96E9BB2778
:1030E0009395F695879577956795B795F111F8CFF4
:1030F000FAF4BB0F11F460FF1BC06F5F7F4F8F4F5F
:103100009F4F16C0882311F096E911C0772321F054
:103110009EE8872F762F05C0662371F096E8862FEC
:1031200070E060E02AF09A95660F771F881FDAF743
:10313000880F9695879597F90895990F0008550F70
:10314000AA0BE0E8FEEF16161706E807F907C0F02D
:1031500012161306E407F50798F0621B730B840B35
:10316000950B39F40A2661F0232B242B252B21F40F
:1031700008950A2609F4A140A6958FEF811D811DAF
:10318000089597F99F6780E870E060E008959FEFE9
:1031900080EC089500240A941616170618060906EE
:1031A000089500240A9412161306140605060895BD
:1031B000092E0394000C11F4882352F0BB0F40F445
:1031C000BF2B11F460FF04C06F5F7F4F8F4F9F4F85
:1031D000089557FD9058440F551F59F05F3F71F007
:1031E0004795880F97FB991F61F09F3F79F087956E
:1031F0000895121613061406551FF2CF4695F1DFF7
:1032000008C0161617061806991FF1CF8695710586
:10321000610508940895E894BB2766277727CB01BA
:1032200097F908950E949D1808F48FEF08950E9461
:103230002A190C94D8180E94CA1838F00E94D11884
:1032400020F0952311F00C94C1180C94C718112488
:103250000C940C190E94E91870F3959FC1F3950F17
:1032600050E0551F629FF001729FBB27F00DB11D0A
:10327000639FAA27F00DB11DAA1F649F6627B00D9A
:10328000A11D661F829F2227B00DA11D621F739F83
:10329000B00DA11D621F839FA00D611D221F749F91
:1032A0003327A00D611D231F849F600D211D822FD8
:1032B000762F6A2F11249F5750409AF0F1F08823FF
:1032C0004AF0EE0FFF1FBB1F661F771F881F91502C
:1032D0005040A9F79E3F510580F00C94C1180C9402
:1032E0000C195F3FE4F3983ED4F386957795679584
:1032F000B795F795E7959F5FC1F7FE2B880F911D56
:0C3300009695879597F90895F894FFCFF3
:02330C000100BE
:00000001FF
