:100000000C9472000C9493000C9493000C94930045
:100010000C9493000C9493000C9493000C94930014
:100020000C9493000C9493000C9493000C94930004
:100030000C9493000C9493000C9493000C949300F4
:100040000C9493000C9493000C9493000C949300E4
:100050000C9493000C945E060C9493000C94930003
:100060000C9493000C9493000C9493000C949300C4
:100070000C9493000C9493000C9493000C949300B4
:100080000C9493000C9493000C9493000C949300A4
:100090000C9493000C9493000C9493000C94930094
:1000A0000C9493000C9493000C9493000C94930084
:1000B0000C9493000C9493000C9493000C94930074
:1000C0000C9493000C9493000C9493000C94930064
:1000D0000C9493000C9493000C9493000C94930054
:1000E0000C94930011241FBECFEFD1E2DEBFCDBF31
:1000F00000E00CBF12E0A0E0B2E0E2E2F1E300E0D9
:100100000BBF02C007900D92A230B107D9F722E0D1
:10011000A2E0B2E001C01D92AF30B207E1F70E9449
:10012000EB060C948F180C940000CF93DF93CDB79F
:10013000DEB784E290E0FC01208184E290E020625E
:10014000FC01208385E290E0FC01208185E290E0C3
:100150002062FC0120830000DF91CF910895CF93AE
:10016000DF93CDB7DEB785E290E0FC01208185E228
:1001700090E02062FC0120830000DF91CF91089580
:10018000CF93DF93CDB7DEB785E290E0FC0120810D
:1001900085E290E02F7DFC0120830000DF91CF916C
:1001A0000895CF93DF93CDB7DEB785E290E0FC01F1
:1001B000308185E290E020E22327FC0120830000CB
:1001C000DF91CF910895CF93DF93CDB7DEB780EA6B
:1001D00090E0FC01108281EA90E024E0FC012083A1
:1001E00084EA90E0FC01118210820000DF91CF913F
:1001F0000895CF93DF93CDB7DEB7A2970FB6F894EB
:10020000DEBF0FBECDBF68EC81E00E94660568ECE2
:1002100082E00E94660580E090E0A8ECB2E4898369
:100220009A83AB83BC8320E030E04AE755E46981E0
:100230007A818B819C810E9422186B8B7C8B8D8BA9
:100240009E8B8B899C89AD89BE898D839E83AF836C
:10025000B88720E030E040E85FE36D817E818F81E8
:1002600098850E94C51688232CF481E090E09A8737
:10027000898755C020E03FEF4FE757E46D817E81CD
:100280008F8198850E941D188823D9F1D4F120E030
:1002900030E040E251E469817A818B819C810E9447
:1002A00022186F8B788F898F9A8F8F89988DA98D5F
:1002B000BA8D8F87988BA98BBA8B6F85788989893E
:1002C0009A890E943C176B8F7C8F8D8F9E8FAB8D90
:1002D000BC8DBA87A98710C080E991E09C878B8785
:1002E0008B859C850197F1F79C878B87000089851A
:1002F0009A8501979A87898789859A85009761F7FA
:1003000019C06D817E818F8198850E943C176F8F07
:1003100078A389A39AA38F8D98A19A8789878985C5
:100320009A859E878D878D859E850197F1F79E879B
:100330008D8700000000A2960FB6F894DEBF0FBEB6
:10034000CDBFDF91CF910895CF93DF93CDB7DEB7C7
:10035000A2970FB6F894DEBF0FBECDBF65EA81E06D
:100360000E94660568EC82E00E94660580E090E0ED
:10037000A8ECB2E489839A83AB83BC8320E030E0AD
:100380004AE755E469817A818B819C810E94221819
:100390006B8B7C8B8D8B9E8B8B899C89AD89BE8969
:1003A0008D839E83AF83B88720E030E040E85FE331
:1003B0006D817E818F8198850E94C51688232CF4DB
:1003C00081E090E09A87898755C020E03FEF4FE7B2
:1003D00057E46D817E818F8198850E941D18882346
:1003E000D9F1D4F120E030E040E251E469817A8132
:1003F0008B819C810E9422186F8B788F898F9A8FB6
:100400008F89988DA98DBA8D8F87988BA98BBA8B80
:100410006F85788989899A890E943C176B8F7C8FB8
:100420008D8F9E8FAB8DBC8DBA87A98710C080E958
:1004300091E09C878B878B859C850197F1F79C8742
:100440008B87000089859A8501979A878987898596
:100450009A85009761F719C06D817E818F8198859B
:100460000E943C176F8F78A389A39AA38F8D98A1C0
:100470009A87898789859A859E878D878D859E85B0
:100480000197F1F79E878D8700000000A2960FB6B6
:10049000F894DEBF0FBECDBFDF91CF910895CF930B
:1004A000DF93CDB7DEB7A2970FB6F894DEBF0FBECD
:1004B000CDBF65EA81E00E94660568EC82E00E949B
:1004C000660580E090E0A8ECB2E489839A83AB8370
:1004D000BC8320E030E04AE755E469817A818B8172
:1004E0009C810E9422186B8B7C8B8D8B9E8B8B89C1
:1004F0009C89AD89BE898D839E83AF83B88720E0B8
:1005000030E040E85FE36D817E818F8198850E94B5
:10051000C51688232CF481E090E09A87898755C01E
:1005200020E03FEF4FE757E46D817E818F81988512
:100530000E941D188823D9F1D4F120E030E040E278
:1005400051E469817A818B819C810E9422186F8B92
:10055000788F898F9A8F8F89988DA98DBA8D8F8783
:10056000988BA98BBA8B6F85788989899A890E9423
:100570003C176B8F7C8F8D8F9E8FAB8DBC8DBA8718
:10058000A98710C080E991E09C878B878B859C852B
:100590000197F1F79C878B87000089859A850197E1
:1005A0009A87898789859A85009761F719C06D8137
:1005B0007E818F8198850E943C176F8F78A389A3D5
:1005C0009AA38F8D98A19A87898789859A859E8716
:1005D0008D878D859E850197F1F79E878D87000019
:1005E0000000A2960FB6F894DEBF0FBECDBFDF911C
:1005F000CF910895CF93DF93CDB7DEB7A2970FB613
:10060000F894DEBF0FBECDBF60E081E00E946605BA
:1006100060E082E00E94660580E090E0A8ECB2E431
:1006200089839A83AB83BC8320E030E04AE755E4BA
:1006300069817A818B819C810E9422186B8B7C8BD3
:100640008D8B9E8B8B899C89AD89BE898D839E8382
:10065000AF83B88720E030E040E85FE36D817E81C2
:100660008F8198850E94C51688232CF481E090E044
:100670009A87898755C020E03FEF4FE757E46D81A7
:100680007E818F8198850E941D188823D9F1D4F12D
:1006900020E030E040E251E469817A818B819C81E5
:1006A0000E9422186F8B788F898F9A8F8F89988DEF
:1006B000A98DBA8D8F87988BA98BBA8B6F85788916
:1006C00089899A890E943C176B8F7C8F8D8F9E8FB2
:1006D000AB8DBC8DBA87A98710C080E991E09C875B
:1006E0008B878B859C850197F1F79C878B87000012
:1006F00089859A8501979A87898789859A85009740
:1007000061F719C06D817E818F8198850E943C17A9
:100710006F8F78A389A39AA38F8D98A19A878987D1
:1007200089859A859E878D878D859E850197F1F7AE
:100730009E878D8700000000A2960FB6F894DEBF5A
:100740000FBECDBFDF91CF910895CF93DF93CDB78B
:10075000DEB7A2970FB6F894DEBF0FBECDBF64EB35
:1007600081E00E94660568EC82E00E94660580E0F8
:1007700090E0A8ECB2E489839A83AB83BC8320E049
:1007800030E04AE755E469817A818B819C810E943F
:1007900022186B8B7C8B8D8B9E8B8B899C89AD8972
:1007A000BE898D839E83AF83B88720E030E040E828
:1007B0005FE36D817E818F8198850E94C5168823B5
:1007C0002CF481E090E09A87898755C020E03FEFC4
:1007D0004FE757E46D817E818F8198850E941D18B7
:1007E0008823D9F1D4F120E030E040E251E469817E
:1007F0007A818B819C810E9422186F8B788F898FE0
:100800009A8F8F89988DA98DBA8D8F87988BA98B98
:10081000BA8B6F85788989899A890E943C176B8F7A
:100820007C8F8D8F9E8FAB8DBC8DBA87A98710C0B2
:1008300080E991E09C878B878B859C850197F1F7F8
:100840009C878B87000089859A8501979A8789877D
:1008500089859A85009761F719C06D817E818F81A6
:1008600098850E943C176F8F78A389A39AA38F8DD8
:1008700098A19A87898789859A859E878D878D8596
:100880009E850197F1F79E878D8700000000A29654
:100890000FB6F894DEBF0FBECDBFDF91CF910895A4
:1008A000CF93DF93CDB7DEB7A2970FB6F894DEBF34
:1008B0000FBECDBF68EC81E00E94660564EB82E06C
:1008C0000E94660580E090E0A8ECB2E489839A83F8
:1008D000AB83BC8320E030E04AE755E469817A814C
:1008E0008B819C810E9422186B8B7C8B8D8B9E8BC5
:1008F0008B899C89AD89BE898D839E83AF83B887A0
:1009000020E030E040E85FE36D817E818F81988553
:100910000E94C51688232CF481E090E09A8789878D
:1009200055C020E03FEF4FE757E46D817E818F8116
:1009300098850E941D188823D9F1D4F120E030E079
:1009400040E251E469817A818B819C810E94221866
:100950006F8B788F898F9A8F8F89988DA98DBA8D9B
:100960008F87988BA98BBA8B6F85788989899A89AB
:100970000E943C176B8F7C8F8D8F9E8FAB8DBC8DB3
:10098000BA87A98710C080E991E09C878B878B8507
:100990009C850197F1F79C878B87000089859A8554
:1009A00001979A87898789859A85009761F719C089
:1009B0006D817E818F8198850E943C176F8F78A30F
:1009C00089A39AA38F8D98A19A87898789859A850B
:1009D0009E878D878D859E850197F1F79E878D87F0
:1009E00000000000A2960FB6F894DEBF0FBECDBF88
:1009F000DF91CF910895CF93DF93CDB7DEB78AE033
:100A000091E0FC0120818AE091E02560FC012083D7
:100A100084E290E0FC01208184E290E02560FC010A
:100A2000208381E091E0FC01208181E091E020645D
:100A3000FC0120838DE290E0FC0120818DE290E0BA
:100A40002860FC01208380EB90E0FC01208180EB9A
:100A500090E02360FC01208380EB90E0FC0120818A
:100A600080EB90E02062FC01208381EB90E0FC01B0
:100A7000208181EB90E02260FC01208380E990E0FE
:100A8000FC01208180E990E02960FC01208380E95D
:100A900090E0FC01208180E990E02068FC01208347
:100AA00081E990E0FC01208181E990E02260FC0175
:100AB000208384EB90E0FC01108288E990E0FC0147
:100AC000118210820000DF91CF910895CF93DF93C0
:100AD0000F920F92CDB7DEB789836A838981813007
:100AE00029F484EB90E02A81FC0120838981823003
:100AF00041F488E990E02A81222F30E0FC01318323
:100B0000208300000F900F90DF91CF910895CF9335
:100B1000DF930F920F92CDB7DEB789836A83898105
:100B20008130B1F48A81813059F58BE091E0FC018C
:100B300020818BE091E02460FC0120838BE091E038
:100B4000FC0120818BE091E02E7FFC01208318C006
:100B500089818230A9F48A81813091F485E290E024
:100B6000FC01208185E290E02460FC01208385E285
:100B700090E0FC01208185E290E02E7FFC01208343
:100B800000000F900F90DF91CF910895CF93DF93E6
:100B9000CDB7DEB761E081E00E94870561E082E0C9
:100BA0000E9487050000DF91CF910895CF93DF93D6
:100BB000CDB7DEB780E390E0FC01208180E390E0D8
:100BC0002F7DFC01208380E390E0FC01208180E305
:100BD00090E02F7BFC0120830000DF91CF910895EE
:100BE000CF93DF93CDB7DEB78FE290E0FC01808139
:100BF000882F90E08072992721E0009709F020E08B
:100C0000822F90E0DF91CF910895CF93DF93CDB7FE
:100C1000DEB78FE290E0FC018081882F90E0807445
:100C2000992721E0009709F020E0822F90E0DF91E2
:100C3000CF910895CF93DF93CDB7DEB783E290E0F5
:100C4000FC018081882F90E08074992721E0009733
:100C500009F020E0822F90E0DF91CF910895CF93AB
:100C6000DF93CDB7DEB70E94C6050E94FB040E9449
:100C7000D6050E94F30F0E94E30084E490E022E096
:100C8000FC01208385E490E025E0FC01208387E4DB
:100C900090E02CE9FC0120838EE690E0FC012081AD
:100CA0008EE690E02260FC01208378940E949500FB
:100CB0000E94C0000000DF91CF9108951F920F9213
:100CC0000FB60F9211240BB60F922F933F934F93B1
:100CD0005F936F937F938F939F93AF93BF93EF93A4
:100CE000FF93CF93DF93CDB7DEB7809102028823C5
:100CF00041F180910E028F5F80930E0290910E025F
:100D00008BED989F812D1124829586958695837011
:100D10002BE4829F802D1124292F281B822F8823CA
:100D200011F40E94D10080910E02853951F048F0F3
:100D30001092020281E08093030210920E020E9440
:100D4000C000809103028823F9F080910402909101
:100D5000050201969093050280930402809104029B
:100D6000909105028133910579F070F010920302A1
:100D700010920502109204020E94DA0681E090E0CF
:100D800090930102809300020000DF91CF91FF91C8
:100D9000EF91BF91AF919F918F917F916F915F91F3
:100DA0004F913F912F910F900BBE0F900FBE0F9060
:100DB0001F901895CF93DF93CDB7DEB785E490E011
:100DC000FC01208185E490E0287FFC012083000065
:100DD000DF91CF9108950F931F93CF93DF93CDB7FA
:100DE000DEB7CE5ED1090FB6F894DEBF0FBECDBF21
:100DF0000E942F061A8219820E944C10A3966CAF93
:100E00007DAF8EAF9FAFA397A3966CAD7DAD8EAD3A
:100E10009FADA3970E943C17CD57DF4F688379831E
:100E20008A839B83C358D040CD57DF4F88819981F7
:100E3000C358D0409E838D830E945012A7966CAFFA
:100E40007DAF8EAF9FAFA797A7966CAD7DAD8EADF2
:100E50009FADA7970E943C17C957DF4F68837983DE
:100E60008A839B83C758D040C957DF4FA881B98177
:100E7000C758D040B887AF830E945414AB966CAF6C
:100E80007DAF8EAF9FAFAB97AB966CAD7DAD8EADAA
:100E90009FADAB970E943C17C557DF4F688379839E
:100EA0008A839B83CB58D040C557DF4FE881F981B7
:100EB000CB58D040FA87E9870E94F0059093090249
:100EC000809308020E94050690930B0280930A0209
:100ED0000E941A06009709F4BDC089819A81009783
:100EE00009F0B8C081E090E09A83898380E090E0C7
:100EF000A8E4B2E48B879C87AD87BE8720E030E012
:100F00004AE755E46B857C858D859E850E94221875
:100F1000C157DF4F688379838A839B83CF58D04042
:100F2000C157DF4F88819981AA81BB81CF58D040BA
:100F30008F87988BA98BBA8B20E030E040E85FE385
:100F40006F85788989899A890E94C51688232CF42F
:100F500081E090E09C8B8B8B72C020E03FEF4FE7ED
:100F600057E46F85788989899A890E941D1888239A
:100F700009F00CF44EC020E030E040E251E46B8513
:100F80007C858D859E850E942218CD56DF4F688313
:100F900079838A839B83C359D040CD56DF4F8881A4
:100FA0009981AA81BB81C359D040AF968CAF9DAFC8
:100FB000AEAFBFAFAF97AF966CAD7DAD8EAD9FAD11
:100FC000AF970E943C17C956DF4F688379838A83A5
:100FD0009B83C759D040C956DF4FA881B981C759F3
:100FE000D040BC8BAB8B10C080E991E09E8B8D8B89
:100FF0008D899E890197F1F79E8B8D8B00008B89DF
:101000009C8901979C8B8B8B8B899C89009761F7BE
:1010100021C06F85788989899A890E943C17C556B5
:10102000DF4F688379838A839B83CB59D040C55631
:10103000DF4FE881F981CB59D040FC8BEB8B8B895A
:101040009C89988F8F8B8F89988D0197F1F7988F56
:101050008F8B00008D819E818E30910539F030F0AC
:101060008F8198858E30910509F0F0F4809103020C
:101070008823D1F4809102028823B1F489819A8176
:10108000009791F00E94FA02109201021092000261
:1010900081E08093020285E490E0DC012C9185E4FC
:1010A00090E02560FC01208389859A858E3091052A
:1010B00009F078F40E94FA021092010210920002E4
:1010C0000E94C00081E090E09093070280930602A6
:1010D0000AC0109207021092060281E090E09093FD
:1010E00001028093000289859A858D31910511F066
:1010F00008F0E3C089859A858F30910509F008F4DE
:10110000DCC01C821B82D2C089E390E0DC018C91A0
:10111000882F90E081709927009709F4C2C084EA73
:1011200090E020E43CE0FC013183208389E390E0FF
:1011300021E0DC012C930E94D10080E090E0A8EC3B
:10114000B2E4898F9A8FAB8FBC8F20E030E04AE702
:1011500055E4698D7A8D8B8D9C8D0E942218C15625
:10116000DF4F688379838A839B83CF59D040C156F0
:10117000DF4F88819981AA81BB81CF59D0408D8F63
:101180009E8FAF8FB8A320E030E040E85FE36D8D25
:101190007E8D8F8D98A10E94C51688232CF481E046
:1011A00090E09AA389A372C020E03FEF4FE757E495
:1011B0006D8D7E8D8F8D98A10E941D18882309F05A
:1011C0000CF44EC020E030E040E251E4698D7A8DAD
:1011D0008B8D9C8D0E942218CD55DF4F68837983BB
:1011E0008A839B83C35AD040CD55DF4F8881998134
:1011F000AA81BB81C35AD040E3968CAF9DAFAEAFFE
:10120000BFAFE397E3966CAD7DAD8EAD9FADE39739
:101210000E943C17C955DF4F688379838A839B837B
:10122000C75AD040C955DF4FA881B981C75AD040AD
:10123000BAA3A9A310C080E991E09CA38BA38BA1C2
:101240009CA10197F1F79CA38BA3000089A19AA10F
:1012500001979AA389A389A19AA1009761F721C058
:101260006D8D7E8D8F8D98A10E943C17C555DF4FE7
:10127000688379838A839B83CB5AD040C555DF4FDF
:10128000E881F981CB5AD040FAA3E9A389A19AA1B8
:101290009EA38DA38DA19EA10197F1F79EA38DA37F
:1012A00000008B819C8101969C838B838B819C8128
:1012B0008130910509F00CF427CF809108029091BC
:1012C0000902009709F4DAC080910A0290910B029A
:1012D000009709F4D3C080910202882309F0CEC0A0
:1012E0008091060290910702009709F0C7C0809193
:1012F000000290910102009709F4C0C089819A818F
:10130000009709F4BBC00E94F90010920D021092E0
:101310000C0280E090E0A8ECB2E48FA398A7A9A704
:10132000BAA720E030E04AE755E46FA178A589A587
:101330009AA50E942218C155DF4F688379838A835A
:101340009B83CF5AD040C155DF4F88819981AA81B4
:10135000BB81CF5AD0408BA79CA7ADA7BEA720E0EA
:1013600030E040E85FE36BA57CA58DA59EA50E94BB
:10137000C51688232CF481E090E098AB8FA772C04B
:1013800020E03FEF4FE757E46BA57CA58DA59EA518
:101390000E941D18882309F00CF44EC020E030E0B4
:1013A00040E251E46FA178A589A59AA50E94221870
:1013B000CD54DF4F688379838A839B83C35BD0409E
:1013C000CD54DF4F88819981AA81BB81C35BD04016
:1013D000E7968CAF9DAFAEAFBFAFE797E7966CAD2A
:1013E0007DAD8EAD9FADE7970E943C17C954DF4F8E
:1013F000688379838A839B83C75BD040C954DF4F5E
:10140000A881B981C75BD040B8ABAFA710C080E955
:1014100091E09AAB89AB89A99AA90197F1F79AABA8
:1014200089AB00008FA598A9019798AB8FA78FA5CE
:1014300098A9009761F721C06BA57CA58DA59EA5F5
:101440000E943C17C554DF4F688379838A839B834E
:10145000CB5BD040C554DF4FE881F981CB5BD040F6
:10146000F8ABEFA78FA598A99CAB8BAB8BA99CA9D8
:101470000197F1F79CAB8BAB00007FC38091080212
:1014800090910902009709F0EEC080910A029091B4
:101490000B02009709F4E7C080910202882309F04B
:1014A000E2C08091060290910702009709F0DBC02C
:1014B0008091000290910102009709F4D4C08981C3
:1014C0009A81009709F4CFC00E94500480E090E018
:1014D000A8ECB2E48DAB9EABAFABB8AF20E030E090
:1014E0004AE755E46DA97EA98FA998AD0E942218FC
:1014F000C154DF4F688379838A839B83CF5BD0405D
:10150000C154DF4F88819981AA81BB81CF5BD040D4
:1015100089AF9AAFABAFBCAF20E030E040E85FE30B
:1015200069AD7AAD8BAD9CAD0E94C51688232CF4B5
:1015300081E090E09EAF8DAF7DC020E03FEF4FE7B0
:1015400057E469AD7AAD8BAD9CAD0E941D18882320
:1015500009F00CF459C020E030E040E251E46DA9FC
:101560007EA98FA998AD0E942218CD53DF4F6883C2
:1015700079838A839B83C35CD040CD53DF4F8881BE
:101580009981AA81BB81C35CD040EB968CAF9DAFA3
:10159000AEAFBFAFEB97EB966CAD7DAD8EAD9FADB3
:1015A000EB970E943C17C953DF4F688379838A8386
:1015B0009B83C75CD040C953DF4FA881B981C75C0A
:1015C000D040BEAFADAF1BC020E931E0CE01CF9619
:1015D000FC0131832083CE01CF96DC018D919C915B
:1015E00011970197F1F79E01215C3F4FF90191831B
:1015F000808300008DAD9EAD01979EAF8DAF8DAD08
:101600009EAD009709F72EC069AD7AAD8BAD9CAD4C
:101610000E943C17C553DF4F688379838A839B837D
:10162000CB5CD040C553DF4F88819981CB5CD040E3
:101630009EAF8DAFCE018F5B9F4F2DAD3EADDC01D8
:101640002D933C93CE018F5B9F4FFC018081918154
:101650000197F1F79E012F5B3F4FD90111969C93A3
:101660008E9300008AC2809108029091090200972F
:1016700009F42AC180910A0290910B02009709F0A7
:1016800023C180910202882309F01EC180910602C5
:1016900090910702009709F017C180910002909184
:1016A0000102009709F410C189819A81009709F419
:1016B0000BC10E94A5039E012D5B3F4F80E090E08F
:1016C000A8ECB2E4F90180839183A283B3838E01F5
:1016D000095B1F4FCE018D5B9F4F20E030E04AE752
:1016E00055E4DC016D917D918D919C910E942218B1
:1016F000C153DF4F688379838A839B83CF5CD0405B
:10170000C153DF4F88819981AA81BB81CF5CD040D2
:10171000F80180839183A283B383CE01895B9F4FBD
:1017200020E030E040E85FE3DC016D917D918D9138
:101730009C910E94C51688234CF4CE01855B9F4F77
:1017400021E030E0FC0131832083A1C0CE01895B20
:101750009F4F20E03FEF4FE757E4DC016D917D9113
:101760008D919C910E941D18882309F00CF471C082
:10177000CE018D5B9F4F20E030E040E251E4FC0160
:1017800060817181828193810E942218CD52DF4F46
:10179000688379838A839B83C35DD040CD52DF4FBA
:1017A00088819981AA81BB81C35DD040EF968CAFBF
:1017B0009DAFAEAFBFAFEF978E01055B1F4FEF96AA
:1017C0006CAD7DAD8EAD9FADEF970E943C17C952B9
:1017D000DF4F688379838A839B83C75DD040C9527A
:1017E000DF4FE881F981C75DD040D8011196FC93A5
:1017F000EE9326C0CE01835B9F4F20E931E0DC01F0
:101800002D933C93CE01835B9F4FFC01808191819E
:101810000197F1F79E01235B3F4FD9018D939C9374
:101820000000CE01855B9F4F9E01255B3F4FF90174
:101830002081318121503109DC0111963C932E9396
:10184000CE01855B9F4FFC0180819181009791F6CD
:101850003AC08E01055B1F4FCE01895B9F4FDC01B3
:101860006D917D918D919C910E943C17C552DF4FE7
:10187000688379838A839B83CB5DD040C552DF4FD9
:1018800088819981CB5DD040F80191838083CE011E
:10189000815B9F4F9E01255B3F4FD9012D913C916C
:1018A000FC0131832083CE01815B9F4FDC018D9150
:1018B0009C9111970197F1F79E01215B3F4FF90130
:1018C00091838083000059C18091080290910902A0
:1018D000009709F091CA80910A0290910B0200973B
:1018E00009F08ACA80910202882309F085CA809192
:1018F000060290910702009709F07ECA80910002CB
:1019000090910102009709F477CA89819A81009722
:1019100009F472CA80910C0290910D02009709F0AF
:101920006BCA9E012F5A3F4F80E090E4ACE9B4E4CB
:10193000F90180839183A283B3838E010B5A1F4FD9
:10194000CE018F5A9F4F20E030E04AE755E4DC019A
:101950006D917D918D919C910E942218C152DF4F13
:10196000688379838A839B83CF5DD040C152DF4FE8
:1019700088819981AA81BB81CF5DD040F8018083A5
:101980009183A283B383CE018B5A9F4F20E030E036
:1019900040E85FE3DC016D917D918D919C910E9407
:1019A000C51688234CF4CE01875A9F4F21E030E0C2
:1019B000FC0131832083A5C0CE018B5A9F4F20E0CC
:1019C0003FEF4FE757E4DC016D917D918D919C9144
:1019D0000E941D18882309F00CF475C0CE018F5A9F
:1019E0009F4F20E030E040E251E4FC0160817181D2
:1019F000828193810E942218CD51DF4F68837983C1
:101A00008A839B83C35ED040CD51DF4F888199810B
:101A1000AA81BB81C35ED040C158DF4F88839983C0
:101A2000AA83BB83CF57D0408E01075A1F4FC1589E
:101A3000DF4F688179818A819B81CF57D0400E9496
:101A40003C17C951DF4F688379838A839B83C75EC4
:101A5000D040C951DF4FE881F981C75ED040D8013D
:101A60001196FC93EE9326C0CE01855A9F4F20E934
:101A700031E0DC012D933C93CE01855A9F4FFC0150
:101A8000808191810197F1F79E01255A3F4FD9013D
:101A90008D939C930000CE01875A9F4F9E01275A39
:101AA0003F4FF9012081318121503109DC0111962C
:101AB0003C932E93CE01875A9F4FFC0180819181E8
:101AC000009791F639C08E01075A1F4FCE018B5AED
:101AD0009F4FDC016D917D918D919C910E943C17EF
:101AE000C551DF4F688379838A839B83CB5ED04067
:101AF000C551DF4F88819981CB5ED040F801918339
:101B00008083CE01835A9F4F9E01275A3F4FD901B0
:101B10002D913C91FC0131832083CE01835A9F4F4C
:101B2000DC018D919C910197F1F79E01235A3F4F63
:101B3000F9019183808300000E944F0281E090E0D0
:101B400090930D0280930C028091080290910902FB
:101B5000009739F480910A0290910B02009709F4E2
:101B60004BC980910C0290910D02009709F444C971
:101B700010920D0210920C0201C03EC980E090E06C
:101B8000C251DF4F0FB6F894DEBF0FBECDBFDF915D
:101B9000CF911F910F9108958F929F92AF92BF9214
:101BA000CF92DF92EF92FF920F931F93CF93DF9329
:101BB000CDB7DEB762970FB6F894DEBF0FBECDBFCC
:101BC0009A8389834B835C836D837E830F8318871D
:101BD00029873A87CB86DC86ED86FE868F86988AB3
:101BE000A98ABA8A29813A818B819C81AD81BE8183
:101BF000F90180839183A283B38329813A818F8104
:101C00009885A985BA85F90184839583A683B783CE
:101C100029813A818B859C85AD85BE85F9018087B8
:101C20009187A287B38789819A81FC0114861586E2
:101C30001686178689819A81FC01108A118A128A78
:101C4000138A89819A81FC01148A158A168A178A57
:101C500029813A818F859889A989BA89F901848F68
:101C6000958FA68FB78F29813A818AA19BA1ACA1BC
:101C7000BDA1F90180A391A3A2A3B3A389819A81F5
:101C8000FC01108E118E128E138E000062960FB61C
:101C9000F894DEBF0FBECDBFDF91CF911F910F91A2
:101CA000FF90EF90DF90CF90BF90AF909F908F907C
:101CB0000895CF93DF93CDB7DEB7C655D1090FB6E0
:101CC000F894DEBF0FBECDBF9A8789874B875C87AC
:101CD0006D877E8789859A85DC0154962D913D918B
:101CE0004D915C9157972F87388B498B5A8B2B8559
:101CF0003C854D855E856F85788989899A890E94A2
:101D000058166FAB78AF89AF9AAF2FA938AD49ADF0
:101D10005AAD29833A834B835C8389859A85DC019C
:101D200050962D913D914D915C9153972B8B3C8B0F
:101D30004D8B5E8B29813A814B815C816B897C89DB
:101D40008D899E890E9459166BAF7CAF8DAF9EAF77
:101D50008BAD9CADADADBEAD29853A85F901808BCB
:101D6000918BA28BB38B89859A85FC01848595859F
:101D7000A685B7859C01AD0169817A818B819C81A3
:101D80000E94581623966CAF7DAF8EAF9FAF2397FE
:101D900023962CAD3DAD4EAD5FAD23972D833E8395
:101DA0004F83588789859A85DC012D913D914D910E
:101DB0005C912F8B388F498F5A8F29813A814B81C3
:101DC0005C816F89788D898D9A8D0E942218279663
:101DD0006CAF7DAF8EAF9FAF279727962CAD3DADF3
:101DE0004EAD5FAD27972B8F3C8F4D8F5E8F8985D2
:101DF0009A85DC0114962D913D914D915C91179738
:101E00002F8F38A349A35AA389859A85FC0180891D
:101E10009189A289B3899C01AD016F8D78A189A1B7
:101E20009AA10E9422182B966CAF7DAF8EAF9FAF08
:101E30002B972B968CAD9DADAEADBFAD2B979C0176
:101E4000AD016B8D7C8D8D8D9E8D0E9459162F96C8
:101E50006CAF7DAF8EAF9FAF2F972F962CAD3DAD62
:101E60004EAD5FAD2F972BA33CA34DA35EA38985F9
:101E70009A85DC0118962D913D914D915C911B97AF
:101E80002FA338A749A75AA72D813E814F81588596
:101E90006FA178A589A59AA50E94221863966CAFB8
:101EA0007DAF8EAF9FAF639763968CAD9DADAEADAA
:101EB000BFAD63979C01AD016BA17CA18DA19EA1DB
:101EC0000E94591667966CAF7DAF8EAF9FAF679734
:101ED00067968CAD9DADAEADBFAD679729853A8550
:101EE000F901808F918FA28FB38F89859A85DC014C
:101EF00058962D913D914D915C915B972BA73CA7F6
:101F00004DA75EA789859A85FC0180A191A1A2A118
:101F1000B3A19C01AD016BA57CA58DA59EA50E94DA
:101F20001D18882381F07CF089859A85FC0180A1A9
:101F300091A1A2A1B3A129853A85F901808F918F42
:101F4000A28FB38F2CC089859A85DC0158962D917C
:101F50003D914D915C915B972FA738AB49AB5AAB44
:101F600089859A85FC01848D958DA68DB78D9C0100
:101F7000AD016FA578A989A99AA90E94C5168823E1
:101F800074F489859A85FC01848D958DA68DB78D15
:101F900029853A85F901808F918FA28FB38F29858A
:101FA0003A8589819A81AB81BC81F90184879587C3
:101FB000A687B78789859A85FC01808D918DA28D32
:101FC000B38D8BAB9CABADABBEAB6BA97CA98DA924
:101FD0009EA9CA5ADF4F0FB6F894DEBF0FBECDBF21
:101FE000DF91CF910895CF93DF93CDB7DEB781E036
:101FF00091E0FC01208181E091E02160FC012083DF
:1020000081E091E0FC01208181E091E02D7FFC01E5
:10201000208382E091E0FC01208182E091E02E7F2C
:10202000FC01208384E091E0FC01208184E091E0C8
:102030002260FC01208384E091E0FC01208184E0A7
:1020400091E02E7FFC01208385E091E0FC0120815E
:1020500085E091E02D7FFC01208381E091E0FC018F
:10206000208181E091E02061FC01208381E091E00A
:10207000FC01208181E091E02F7DFC01208382E042
:1020800091E0FC01208182E091E02F7EFC01208321
:102090000000DF91CF910895CF93DF93CDB7DEB7E6
:1020A000C656D1090FB6F894DEBF0FBECDBF82E091
:1020B00091E0DC012C9182E091E02160FC01208321
:1020C00080E090E0A0E2B1E48F839887A987BA8787
:1020D0002BEA3AEA4AEA50E46F81788589859A8545
:1020E0000E9422186FAB78AF89AF9AAF2FA938AD95
:1020F00049AD5AAD2B873C874D875E8720E030E0A5
:1021000040E850E46F81788589859A850E9422187D
:102110006BAF7CAF8DAF9EAF8BAD9CADADADBEADAB
:102120008F87988BA98BBA8B20E030E040E85FE383
:102130006B857C858D859E850E94C51688231CF441
:1021400081E08B8BFBC020E03FEF4FE757E46F85CA
:10215000788989899A890E941D18882309F00CF4CE
:10216000B2C020E030E04AE754E46F817885898589
:102170009A850E94CA1623966CAF7DAF8EAF9FAF33
:10218000239723968CAD9DADAEADBFAD23978C8BC1
:102190009D8BAE8BBF8B20E030E04AE755E46C8925
:1021A0007D898E899F890E94221827966CAF7DAF0A
:1021B0008EAF9FAF279727962CAD3DAD4EAD5FAD4F
:1021C0002797288F398F4A8F5B8F20E030E040E8D7
:1021D0005FE3688D798D8A8D9B8D0E94C51688235B
:1021E0002CF481E090E09D8F8C8F62C020E03FEF67
:1021F0004FE757E4688D798D8A8D9B8D0E941D185D
:10220000882309F00CF442C020E030E040E251E4C1
:102210006C897D898E899F890E9422182B966CAFCC
:102220007DAF8EAF9FAF2B972B968CAD9DADAEAD96
:10223000BFAD2B978FA798ABA9ABBAAB6FA578A909
:1022400089A99AA90E943C172F966CAF7DAF8EAFDB
:102250009FAF2F972D96AEADBFAD2D97BD8FAC8F95
:1022600010C080E991E09F8F8E8F8E8D9F8D01979A
:10227000F1F79F8F8E8F00008C8D9D8D01979D8F24
:102280008C8F8C8D9D8D009761F758C0688D798DEE
:102290008A8D9B8D0E943C1763966CAF7DAF8EAF8D
:1022A0009FAF63976196EEADFFAD6197FD8FEC8FA9
:1022B0008C8D9D8D99A388A388A199A10197F1F791
:1022C00099A388A33BC020E030E04FE753E46B853F
:1022D0007C858D859E850E941D188823F9F0F4F079
:1022E0006F85788989899A890E943C1767966CAFB7
:1022F0007DAF8EAF9FAF679765962EAD3FAD65976B
:102300003BA32AA38AA19BA19DA38CA38CA19DA1E1
:102310000197F1F79DA38CA3000017C06B857C8506
:102320008D859E850E943C176B966CAF7DAF8EAFFE
:102330009FAF6B9768963FAD68973B8B8B898EA359
:102340008EA18A95F1F78EA3000082E091E0DC0176
:102350002C9182E091E02E7FFC012083000080E040
:1023600091E0DC018C91882F90E082709927009792
:10237000B1F384E890E0FC011182108281E890E0E2
:10238000DC012C9181E890E02260FC0120830BC0ED
:1023900084E890E0DC018D919C9111978036BAEE33
:1023A0009B0709F058F480E091E0FC018081882FC0
:1023B00090E082709927009759F701C0000081E8EA
:1023C00090E0DC012C9181E890E02D7FFC012083DE
:1023D00084E890E0DC018D919C919A8389838981C6
:1023E0009A819C0140E050E06F962CAF3DAF4EAF1C
:1023F0005FAF6F976F966CAD7DAD8EAD9FAD6F97F4
:102400000E946B176FA378A789A79AA720E030E0F6
:1024100048E652E46FA178A589A59AA50E94CA163C
:10242000A3966CAF7DAF8EAF9FAFA397A3968CADF5
:102430009DADAEADBFADA3978BA79CA7ADA7BEA723
:1024400020E030E040E050E46BA57CA58DA59EA582
:102450000E94CA16A7966CAF7DAF8EAF9FAFA797AD
:10246000A7962CAD3DAD4EAD5FADA7972B833C83BA
:102470004D835E838B819C81AD81BE818BAB9CAB98
:10248000ADABBEAB6BA97CA98DA99EA9CA59DF4F84
:102490000FB6F894DEBF0FBECDBFDF91CF91089588
:1024A000CF93DF93CDB7DEB7C656D1090FB6F894F8
:1024B000DEBF0FBECDBF85E091E0DC012C9185E051
:1024C00091E02260FC01208380E090E0A0E2B1E492
:1024D0008F839887A987BA872BEA3AEA4AEA50E4B9
:1024E0006F81788589859A850E9422186FAB78AFB5
:1024F00089AF9AAF2FA938AD49AD5AAD2B873C872C
:102500004D875E8720E030E040E850E46F817885B9
:1025100089859A850E9422186BAF7CAF8DAF9EAFE4
:102520008BAD9CADADADBEAD8F87988BA98BBA8BB3
:1025300020E030E040E85FE36B857C858D859E85FB
:102540000E94C51688231CF481E08B8BFBC020E021
:102550003FEF4FE757E46F85788989899A890E9410
:102560001D18882309F00CF4B2C020E030E04AE7DF
:1025700054E46F81788589859A850E94CA162396CE
:102580006CAF7DAF8EAF9FAF239723968CAD9DAD83
:10259000AEADBFAD23978C8B9D8BAE8BBF8B20E0F8
:1025A00030E04AE755E46C897D898E899F890E94D5
:1025B000221827966CAF7DAF8EAF9FAF27972796D7
:1025C0002CAD3DAD4EAD5FAD2797288F398F4A8F2B
:1025D0005B8F20E030E040E85FE3688D798D8A8D85
:1025E0009B8D0E94C51688232CF481E090E09D8F7E
:1025F0008C8F62C020E03FEF4FE757E4688D798D04
:102600008A8D9B8D0E941D18882309F00CF442C00E
:1026100020E030E040E251E46C897D898E899F8919
:102620000E9422182B966CAF7DAF8EAF9FAF2B9779
:102630002B968CAD9DADAEADBFAD2B978FA798AB54
:10264000A9ABBAAB6FA578A989A99AA90E943C1732
:102650002F966CAF7DAF8EAF9FAF2F972D96AEADFF
:10266000BFAD2D97BD8FAC8F10C080E991E09F8FDB
:102670008E8F8E8D9F8D0197F1F79F8F8E8F00002B
:102680008C8D9D8D01979D8F8C8F8C8D9D8D00974E
:1026900061F758C0688D798D8A8D9B8D0E943C179B
:1026A00063966CAF7DAF8EAF9FAF63976196EEADD3
:1026B000FFAD6197FD8FEC8F8C8D9D8D99A388A3C5
:1026C00088A199A10197F1F799A388A33BC020E0C5
:1026D00030E04FE753E46B857C858D859E850E94B5
:1026E0001D188823F9F0F4F06F85788989899A8913
:1026F0000E943C1767966CAF7DAF8EAF9FAF679718
:1027000065962EAD3FAD65973BA32AA38AA19BA1F9
:102710009DA38CA38CA19DA10197F1F79DA38CA3F0
:10272000000017C06B857C858D859E850E943C17B7
:102730006B966CAF7DAF8EAF9FAF6B9768963FADDA
:1027400068973B8B8B898EA38EA18A95F1F78EA318
:10275000000085E091E0DC012C9185E091E02D7F87
:10276000FC012083000083E091E0DC018C91882F44
:1027700090E0817099270097B1F384E890E0FC0124
:102780001182108281E890E0DC012C9181E890E0D8
:102790002260FC0120830BC084E890E0DC018D9175
:1027A0009C9111978036BAEE9B0709F058F483E0AC
:1027B00091E0FC018081882F90E08170992700973B
:1027C00059F701C0000081E890E0DC012C9181E81C
:1027D00090E02D7FFC01208384E890E0DC018D9166
:1027E0009C919A83898389819A819C0140E050E081
:1027F0006F962CAF3DAF4EAF5FAF6F976F966CADDE
:102800007DAD8EAD9FAD6F970E946B176FA378A7BC
:1028100089A79AA720E030E048E652E46FA178A5A6
:1028200089A59AA50E94CA16A3966CAF7DAF8EAFFC
:102830009FAFA397A3968CAD9DADAEADBFADA39753
:102840008BA79CA7ADA7BEA720E030E040E050E4F6
:102850006BA57CA58DA59EA50E94CA16A7966CAFF8
:102860007DAF8EAF9FAFA797A7962CAD3DAD4EAD78
:102870005FADA7972B833C834D835E838B819C81C7
:10288000AD81BE818BAB9CABADABBEAB6BA97CA964
:102890008DA99EA9CA59DF4F0FB6F894DEBF0FBEAF
:1028A000CDBFDF91CF910895CF93DF93CDB7DEB742
:1028B000C656D1090FB6F894DEBF0FBECDBF82E079
:1028C00091E0DC012C9182E091E02061FC01208309
:1028D00080E090E0A0E2B1E48F839887A987BA876F
:1028E0002BEA3AEA4AEA50E46F81788589859A852D
:1028F0000E9422186FAB78AF89AF9AAF2FA938AD7D
:1029000049AD5AAD2B873C874D875E8720E030E08C
:1029100040E850E46F81788589859A850E94221865
:102920006BAF7CAF8DAF9EAF8BAD9CADADADBEAD93
:102930008F87988BA98BBA8B20E030E040E85FE36B
:102940006B857C858D859E850E94C51688231CF429
:1029500081E08B8BFBC020E03FEF4FE757E46F85B2
:10296000788989899A890E941D18882309F00CF4B6
:10297000B2C020E030E04AE754E46F817885898571
:102980009A850E94CA1623966CAF7DAF8EAF9FAF1B
:10299000239723968CAD9DADAEADBFAD23978C8BA9
:1029A0009D8BAE8BBF8B20E030E04AE755E46C890D
:1029B0007D898E899F890E94221827966CAF7DAFF2
:1029C0008EAF9FAF279727962CAD3DAD4EAD5FAD37
:1029D0002797288F398F4A8F5B8F20E030E040E8BF
:1029E0005FE3688D798D8A8D9B8D0E94C516882343
:1029F0002CF481E090E09D8F8C8F62C020E03FEF4F
:102A00004FE757E4688D798D8A8D9B8D0E941D1844
:102A1000882309F00CF442C020E030E040E251E4A9
:102A20006C897D898E899F890E9422182B966CAFB4
:102A30007DAF8EAF9FAF2B972B968CAD9DADAEAD7E
:102A4000BFAD2B978FA798ABA9ABBAAB6FA578A9F1
:102A500089A99AA90E943C172F966CAF7DAF8EAFC3
:102A60009FAF2F972D96AEADBFAD2D97BD8FAC8F7D
:102A700010C080E991E09F8F8E8F8E8D9F8D019782
:102A8000F1F79F8F8E8F00008C8D9D8D01979D8F0C
:102A90008C8F8C8D9D8D009761F758C0688D798DD6
:102AA0008A8D9B8D0E943C1763966CAF7DAF8EAF75
:102AB0009FAF63976196EEADFFAD6197FD8FEC8F91
:102AC0008C8D9D8D99A388A388A199A10197F1F779
:102AD00099A388A33BC020E030E04FE753E46B8527
:102AE0007C858D859E850E941D188823F9F0F4F061
:102AF0006F85788989899A890E943C1767966CAF9F
:102B00007DAF8EAF9FAF679765962EAD3FAD659752
:102B10003BA32AA38AA19BA19DA38CA38CA19DA1C9
:102B20000197F1F79DA38CA3000017C06B857C85EE
:102B30008D859E850E943C176B966CAF7DAF8EAFE6
:102B40009FAF6B9768963FAD68973B8B8B898EA341
:102B50008EA18A95F1F78EA3000082E091E0DC015E
:102B60002C9182E091E02F7EFC012083000080E028
:102B700091E0DC018C91882F90E08072992700977A
:102B8000B1F384E890E0FC011182108281E890E0CA
:102B9000DC012C9181E890E02260FC0120830BC0D5
:102BA00084E890E0DC018D919C9111978036BAEE1B
:102BB0009B0709F058F480E091E0FC018081882FA8
:102BC00090E080729927009759F701C0000081E8D2
:102BD00090E0DC012C9181E890E02D7FFC012083C6
:102BE00084E890E0DC018D919C919A8389838981AE
:102BF0009A819C0140E050E06F962CAF3DAF4EAF04
:102C00005FAF6F976F966CAD7DAD8EAD9FAD6F97DB
:102C10000E946B176FA378A789A79AA720E030E0DE
:102C200048E652E46FA178A589A59AA50E94CA1624
:102C3000A3966CAF7DAF8EAF9FAFA397A3968CADDD
:102C40009DADAEADBFADA3978BA79CA7ADA7BEA70B
:102C500020E030E040E050E46BA57CA58DA59EA56A
:102C60000E94CA16A7966CAF7DAF8EAF9FAFA79795
:102C7000A7962CAD3DAD4EAD5FADA7972B833C83A2
:102C80004D835E838B819C81AD81BE818BAB9CAB80
:102C9000ADABBEAB6BA97CA98DA99EA9CA59DF4F6C
:102CA0000FB6F894DEBF0FBECDBFDF91CF91089570
:102CB0005058BB27AA270E9470160C94E3170E9455
:102CC000D51738F00E94DC1720F039F49F3F19F433
:102CD00026F40C94D2170EF4E095E7FB0C94CC1775
:102CE000E92F0E94F41758F3BA1762077307840795
:102CF000950720F079F4A6F50C9416180EF4E095DB
:102D00000B2EBA2FA02D0B01B90190010C01CA01A5
:102D1000A0011124FF27591B99F0593F50F4503E50
:102D200068F11A16F040A22F232F342F4427585F42
:102D3000F3CF469537952795A795F0405395C9F75A
:102D40007EF41F16BA0B620B730B840BBAF0915012
:102D5000A1F0FF0FBB1F661F771F881FC2F70EC0B1
:102D6000BA0F621F731F841F48F487957795679584
:102D7000B795F7959E3F08F0B0CF9395880F08F070
:102D80009927EE0F9795879508950E94A81708F444
:102D900081E008950E94DE160C94E3170E94DC1770
:102DA00058F00E94D51740F029F45F3F29F00C94A9
:102DB000CC1751110C9417180C94D2170E94F417C9
:102DC00068F39923B1F3552391F3951B550BBB275A
:102DD000AA2762177307840738F09F5F5F4F220F9F
:102DE000331F441FAA1FA9F335D00E2E3AF0E0E896
:102DF00032D091505040E695001CCAF72BD0FE2FE0
:102E000029D0660F771F881FBB1F26173707480773
:102E1000AB07B0E809F0BB0B802DBF01FF2793582B
:102E20005F4F3AF09E3F510578F00C94CC170C940C
:102E300017185F3FE4F3983ED4F38695779567952E
:102E4000B795F7959F5FC9F7880F911D9695879560
:102E500097F90895E1E0660F771F881FBB1F62177F
:102E600073078407BA0720F0621B730B840BBA0B3D
:102E7000EE1F88F7E09508950E94FC1788F09F5791
:102E800098F0B92F9927B751B0F0E1F0660F771F8E
:102E9000881F991F1AF0BA95C9F714C0B13091F084
:102EA0000E941618B1E008950C941618672F782F19
:102EB0008827B85F39F0B93FCCF386957795679549
:102EC000B395D9F73EF490958095709561957F4FB5
:102ED0008F4F9F4F0895E89409C097FB3EF490955B
:102EE0008095709561957F4F8F4F9F4F9923A9F0E3
:102EF000F92F96E9BB279395F69587957795679572
:102F0000B795F111F8CFFAF4BB0F11F460FF1BC0B5
:102F10006F5F7F4F8F4F9F4F16C0882311F096E948
:102F200011C0772321F09EE8872F762F05C06623F6
:102F300071F096E8862F70E060E02AF09A95660FAF
:102F4000771F881FDAF7880F9695879597F9089568
:102F5000990F0008550FAA0BE0E8FEEF16161706AA
:102F6000E807F907C0F012161306E407F50798F012
:102F7000621B730B840B950B39F40A2661F0232B2B
:102F8000242B252B21F408950A2609F4A140A695A7
:102F90008FEF811D811D089597F99F6780E870E08C
:102FA00060E008959FEF80EC089500240A941616BF
:102FB000170618060906089500240A941216130627
:102FC000140605060895092E0394000C11F48823B5
:102FD00052F0BB0F40F4BF2B11F460FF04C06F5FD1
:102FE0007F4F8F4F9F4F089557FD9058440F551FA7
:102FF00059F05F3F71F04795880F97FB991F61F07B
:103000009F3F79F087950895121613061406551FF1
:10301000F2CF4695F1DF08C0161617061806991F5D
:10302000F1CF86957105610508940895E894BB2752
:1030300066277727CB0197F908950E94A81708F40F
:103040008FEF08950E9435180C94E3170E94D5174E
:1030500038F00E94DC1720F0952311F00C94CC1767
:103060000C94D21711240C9417180E94F41770F3C3
:10307000959FC1F3950F50E0551F629FF001729F1D
:10308000BB27F00DB11D639FAA27F00DB11DAA1F2C
:10309000649F6627B00DA11D661F829F2227B00D79
:1030A000A11D621F739FB00DA11D621F839FA00D04
:1030B000611D221F749F3327A00D611D231F849F54
:1030C000600D211D822F762F6A2F11249F575040AB
:1030D0009AF0F1F088234AF0EE0FFF1FBB1F661F26
:1030E000771F881F91505040A9F79E3F510580F0EF
:1030F0000C94CC170C9417185F3FE4F3983ED4F36C
:10310000869577956795B795F795E7959F5FC1F792
:10311000FE2B880F911D9695879597F90895F89441
:02312000FFCFDF
:023122000100AA
:00000001FF
