:100000000C9472000C947E000C947E000C947E0084
:100010000C947E000C947E000C947E000C947E0068
:100020000C947E000C947E000C947E000C947E0058
:100030000C947E000C947E000C947E000C947E0048
:100040000C947E000C947E000C947E000C947E0038
:100050000C947E000C947E000C947E000C947E0028
:100060000C947E000C947E000C947E000C947E0018
:100070000C947E000C947E000C947E000C947E0008
:100080000C947E000C947E000C947E000C947E00F8
:100090000C947E000C947E000C947E000C947E00E8
:1000A0000C947E000C947E000C947E000C947E00D8
:1000B0000C947E000C947E000C947E000C947E00C8
:1000C0000C947E000C947E000C947E000C947E00B8
:1000D0000C947E000C947E000C947E000C947E00A8
:1000E0000C947E0011241FBECFEFD1E2DEBFCDBF46
:1000F00000E00CBF0E9427040C94BA090C94000085
:10010000CF93DF93CDB7DEB78AE091E0FC01208189
:100110008AE091E02560FC01208384E290E0FC010C
:10012000208184E290E02560FC01208381E091E061
:10013000FC01208181E091E02864FC01208380EBB8
:1001400090E0FC01208180EB90E02360FC012083A3
:1001500080EB90E0FC01208180EB90E02062FC01CC
:10016000208381EB90E0FC01208181EB90E0226014
:10017000FC01208380E990E0FC01208180E990E08F
:100180002360FC01208380E990E0FC01208180E96C
:1001900090E02068FC01208381E990E0FC0120814F
:1001A00081E990E02A60FC01208384EB90E0FC016F
:1001B000108288E990E0FC01118210820000DF913A
:1001C000CF910895CF93DF930F920F92CDB7DEB703
:1001D00089836A838981813031F484EB90E02A81BC
:1001E000FC0120830BC08981823041F488E990E0D2
:1001F0002A81222F30E0FC013183208300000F9000
:100200000F90DF91CF910895CF93DF930F920F92CC
:10021000CDB7DEB789836A838981813049F58A81C8
:10022000813099F48BE091E0FC0120818BE091E03A
:100230002460FC0120838BE091E0FC0120818BE0B5
:1002400091E02E7FFC0120833EC08BE091E0FC0119
:1002500020818BE091E02B7FFC0120838BE091E0FB
:10026000FC0120818BE091E02160FC0120832BC008
:100270008981823041F58A81813099F485E290E06C
:10028000FC01208185E290E02460FC01208385E26E
:1002900090E0FC01208185E290E02E7FFC0120832C
:1002A00012C085E290E0FC01208185E290E02B7F86
:1002B000FC01208385E290E0FC01208185E290E052
:1002C0002160FC01208300000F900F90DF91CF91FF
:1002D0000895CF93DF93CDB7DEB760EF81E00E9442
:1002E000E20064EB82E00E94E2000000DF91CF9127
:1002F0000895CF93DF93CDB7DEB764EB81E00E9422
:10030000E20060EF82E00E94E2000000DF91CF9106
:100310000895CF93DF93CDB7DEB761E081E00E940F
:10032000040160EF81E00E94E20061E082E00E944F
:10033000040160EF82E00E94E2000000DF91CF91B3
:100340000895CF93DF93CDB7DEB760E081E00E94E0
:10035000E20060E082E00E94E2000000DF91CF91C5
:100360000895CF93DF93CDB7DEB78DE290E0FC0127
:1003700020818DE290E02062FC0120830000DF916B
:10038000CF910895CF93DF93CDB7DEB78EE290E0A3
:10039000FC0120818EE290E02F7DFC012083000093
:1003A000DF91CF910895CF93DF93CDB7DEB78EE283
:1003B00090E0FC0120818EE290E02062FC0120832D
:1003C0000000DF91CF910895CF93DF93CDB7DEB7D3
:1003D0008EE290E0FC0130818EE290E020E2232763
:1003E000FC0120830000DF91CF910895CF93DF932C
:1003F000CDB7DEB780EA90E0FC01108281EA90E0A0
:1004000024E0FC01208384EA90E020E43CE0FC014D
:10041000318320830000DF91CF910895CF93DF9344
:10042000CDB7DEB781E091E0FC01208181E091E071
:100430002160FC01208381E091E0FC01208181E0CA
:1004400091E02D7FFC01208382E091E0FC0120817E
:1004500082E091E02E7FFC0120830000DF91CF91AC
:100460000895CF93DF93CDB7DEB7CC54D1090FB643
:10047000F894DEBF0FBECDBF82E091E0DC012C918D
:1004800082E091E02160FC01208380E090E0A0E226
:10049000B1E48D839E83AF83B8872BEA3AEA4AEAB8
:1004A00050E46D817E818F8198850E944D0969A7F6
:1004B0007AA78BA79CA789A59AA5ABA5BCA5898778
:1004C0009A87AB87BC8720E030E040E850E46D813C
:1004D0007E818F8198850E944D096DA77EA78FA789
:1004E00098AB8DA59EA5AFA5B8A98D879E87AF8730
:1004F000B88B20E030E040E85FE369857A858B8542
:100500009C850E942D0888231CF481E0898BEDC016
:1005100020E03FEF4FE757E46D857E858F85988912
:100520000E944809882309F00CF4A4C020E030E0C0
:100530004AE754E46D817E818F8198850E9432085C
:1005400069AB7AAB8BAB9CAB89A99AA9ABA9BCA9C7
:100550008A8B9B8BAC8BBD8B20E030E04AE755E467
:100560006A897B898C899D890E944D096DAB7EAB20
:100570008FAB98AF8DA99EA9AFA9B8AD8E8B9F8B7D
:10058000A88FB98F20E030E040E85FE36E897F8973
:10059000888D998D0E942D0888232CF481E090E0AD
:1005A0009B8F8A8F5CC020E03FEF4FE757E46E8956
:1005B0007F89888D998D0E944809882309F00CF461
:1005C0003CC020E030E040E251E46A897B898C89BC
:1005D0009D890E944D0969AF7AAF8BAF9CAF89AD01
:1005E0009AADABADBCAD8DA39EA3AFA3B8A76DA1D3
:1005F0007EA18FA198A50E94A40821966CAF7DAF23
:100600008EAF9FAF2197ADADBEADBB8FAA8F10C08F
:1006100080E991E09D8F8C8F8C8D9D8D0197F1F7F6
:100620009D8F8C8F00008A8D9B8D01979B8F8A8F69
:100630008A8D9B8D009761F758C06E897F89888D60
:10064000998D0E94A40825966CAF7DAF8EAF9FAFA9
:1006500025972396EEADFFAD2397FB8FEA8F8A8D0A
:100660009B8D9F8F8E8F8E8D9F8D0197F1F79F8F22
:100670008E8F3BC020E030E04FE753E469857A85F8
:100680008B859C850E9448098823F9F0F4F06D85DC
:100690007E858F8598890E94A40829966CAF7DAFCE
:1006A0008EAF9FAF299727968EAD9FAD279799A3C1
:1006B00088A388A199A19BA38AA38AA19BA1019742
:1006C000F1F79BA38AA3000017C069857A858B8503
:1006D0009C850E94A4082D966CAF7DAF8EAF9FAF16
:1006E0002D972A969FAD2A97998B89898CA38CA1E7
:1006F0008A95F1F78CA3000082E091E0DC012C9157
:1007000082E091E02E7FFC012083000080E091E0F8
:10071000DC018C91882F90E0827099270097B1F3CB
:1007200084E890E0FC011182108281E890E0DC0115
:100730002C9181E890E02260FC0120830BC084E8CA
:1007400090E0DC018D919C9111978036BAEE9B0769
:1007500009F058F480E091E0FC018081882F90E05E
:1007600082709927009759F701C0000081E890E056
:10077000DC012C9181E890E02D7FFC01208384E84E
:1007800090E0DC018D919C919A83898389819A8183
:100790009C01AFE9B6E40E941E08929582958F7085
:1007A00089279F7089279C838B838B819C81C45B65
:1007B000DF4F0FB6F894DEBF0FBECDBFDF91CF91F4
:1007C0000895CF93DF93CDB7DEB70E940E020E944B
:1007D000B1010E94F6010E94D30180E890E0FC0183
:1007E000108281E890E0FC0110820E9480000E944B
:1007F00089010000DF91CF910895CF93DF93CDB7AA
:10080000DEB78FE290E0FC018081882F90E082705B
:10081000992721E0009709F020E0822F90E0DF91F6
:10082000CF910895CF93DF93CDB7DEB78FE290E0FD
:10083000FC018081882F90E08470992721E0009747
:1008400009F020E0822F90E0DF91CF9108950F937F
:100850001F93CF93DF93CDB7DEB7CC5AD1090FB634
:10086000F894DEBF0FBECDBF0E94E1030E943102AB
:100870009A83898389819A818D31910511F008F0DD
:10088000BAC089819A818F30910509F008F4B3C00C
:1008900084EA90E020E43CE0DC0111963C932E9346
:1008A00089E390E021E0FC0120830E94E40180E0E4
:1008B00090E0A8ECB2E48B839C83AD83BE8320E000
:1008C00030E04AE755E46B817C818D819E810E94F6
:1008D0004D09A1966CAF7DAF8EAF9FAFA197A1964A
:1008E0008CAD9DADAEADBFADA1978F839887A98725
:1008F000BA8720E030E040E85FE36F817885898542
:100900009A850E942D0888232CF481E090E09C8732
:100910008B8766C020E03FEF4FE757E46F81788513
:1009200089859A850E944809882309F00CF446C0FD
:1009300020E030E040E251E46B817C818D819E813A
:100940000E944D09A5966CAF7DAF8EAF9FAFA59766
:10095000A5968CAD9DADAEADBFADA5972D968CAFD8
:100960009DAFAEAFBFAF2D972D966CAD7DAD8EAD6B
:100970009FAD2D970E94A408A9966CAF7DAF8EAF56
:100980009FAFA997A796AEADBFADA797BC87AB8722
:1009900010C080E991E09E878D878D859E850197A7
:1009A000F1F79E878D8700008B859C8501979C873A
:1009B0008B878B859C85009761F71DC06F8178853B
:1009C00089859A850E94A408AD966CAF7DAF8EAFE5
:1009D0009FAFAD97AB96EEADFFADAB97FC87EB87C6
:1009E0008B859C85988B8F878F8598890197F1F7E8
:1009F000988B8F87000089819A818E30910511F044
:100A000008F0A8C00E94A1010E94D30180E090E0FC
:100A1000A8ECB2E4898B9A8BAB8BBC8B20E030E0E6
:100A20004AE755E469897A898B899C890E944D0936
:100A3000E1966CAF7DAF8EAF9FAFE197E1968CAD45
:100A40009DADAEADBFADE1978D8B9E8BAF8BB88F5B
:100A500020E030E040E85FE36D897E898F89988DE2
:100A60000E942D0888232CF481E090E09A8F898FD2
:100A700066C020E03FEF4FE757E46D897E898F899C
:100A8000988D0E944809882309F00CF446C020E0A4
:100A900030E040E251E469897A898B899C890E941F
:100AA0004D09E5966CAF7DAF8EAF9FAFE597E596AC
:100AB0008CAD9DADAEADBFADE59761968CAF9DAFF2
:100AC000AEAFBFAF619761966CAD7DAD8EAD9FADA2
:100AD00061970E94A408E9966CAF7DAF8EAF9FAF7F
:100AE000E997E796AEADBFADE797BA8FA98F10C073
:100AF00080E991E09C8F8B8F8B8D9C8D0197F1F716
:100B00009C8F8B8F0000898D9A8D01979A8F898F8A
:100B1000898D9A8D009761F71DC06D897E898F89B7
:100B2000988D0E94A408ED966CAF7DAF8EAF9FAFFD
:100B3000ED97EB96EEADFFADEB97FA8FE98F898DD0
:100B40009A8D9E8F8D8F8D8D9E8D0197F1F79E8F43
:100B50008D8F00000E94FD03009709F4B6C00E942B
:100B6000690180E090E0A8ECB2E48F8F98A3A9A37C
:100B7000BAA320E030E04AE755E46F8D78A189A15F
:100B80009AA10E944D09C358DF4F688379838A83F5
:100B90009B83CD57D040C358DF4F88819981AA816C
:100BA000BB81CD57D0408BA39CA3ADA3BEA320E0B7
:100BB00030E040E85FE36BA17CA18DA19EA10E9483
:100BC0002D0888232CF481E090E098A78FA372C0B1
:100BD00020E03FEF4FE757E46BA17CA18DA19EA1E0
:100BE0000E944809882309F00CF44EC020E030E050
:100BF00040E251E46F8D78A189A19AA10E944D092C
:100C0000CF57DF4F688379838A839B83C158D04055
:100C1000CF57DF4F88819981AA81BB81C158D040CD
:100C200065968CAF9DAFAEAFBFAF659765966CAD67
:100C30007DAD8EAD9FAD65970E94A408CB57DF4F69
:100C4000688379838A839B83C558D040CB57DF4F15
:100C5000A881B981C558D040B8A7AFA310C080E91A
:100C600091E09AA789A789A59AA50197F1F79AA774
:100C700089A700008FA198A5019798A78FA38FA19E
:100C800098A5009761F721C06BA17CA18DA19EA1C1
:100C90000E94A408C757DF4F688379838A839B83A8
:100CA000C958D040C757DF4FE881F981C958D040B3
:100CB000F8A7EFA38FA198A59CA78BA78BA59CA5B0
:100CC0000197F1F79CA78BA700000E9412040097E0
:100CD00009F4B6C00E94790180E090E0A8ECB2E48B
:100CE0008DA79EA7AFA7B8AB20E030E04AE755E458
:100CF0006DA57EA58FA598A90E944D09C357DF4F0A
:100D0000688379838A839B83CD58D040C357DF4F54
:100D100088819981AA81BB81CD58D04089AB9AAB9B
:100D2000ABABBCAB20E030E040E85FE369A97AA957
:100D30008BA99CA90E942D0888232CF481E090E0C7
:100D40009EAB8DAB72C020E03FEF4FE757E469A93F
:100D50007AA98BA99CA90E944809882309F00CF460
:100D60004EC020E030E040E251E46DA57EA58FA5A5
:100D700098A90E944D09CF56DF4F688379838A83F3
:100D80009B83C159D040CF56DF4F88819981AA817A
:100D9000BB81C159D04069968CAF9DAFAEAFBFAF9C
:100DA000699769966CAD7DAD8EAD9FAD69970E94D8
:100DB000A408CB56DF4F688379838A839B83C55908
:100DC000D040CB56DF4FA881B981C559D040BEABCA
:100DD000ADAB10C080E991E098AF8FAB8FA998AD13
:100DE0000197F1F798AF8FAB00008DA99EA90197ED
:100DF0009EAB8DAB8DA99EA9009761F71EC169A915
:100E00007AA98BA99CA90E94A408C756DF4F6883C2
:100E100079838A839B83C959D040C756DF4FE881C5
:100E2000F981C959D040FEABEDAB8DA99EA99AAF0F
:100E300089AF89AD9AAD0197F1F79AAF89AFFDC03F
:100E40000E9489010E94D30180E090E0A8ECB2E406
:100E50008BAF9CAFADAFBEAF8E01015C1F4F20E0EA
:100E600030E04AE755E46BAD7CAD8DAD9EAD0E94A0
:100E70004D09C356DF4F688379838A839B83CD599D
:100E8000D040C356DF4F88819981AA81BB81CD595B
:100E9000D040F80180839183A283B383CE01CF96A3
:100EA00020E030E040E85FE3DC016D917D918D91C1
:100EB0009C910E942D0888234CF4CE018D5B9F4F9E
:100EC00021E030E0FC01318320839BC0CE01CF962E
:100ED00020E03FEF4FE757E4DC016D917D918D916C
:100EE0009C910E944809882309F00CF46DC020E011
:100EF00030E040E251E46BAD7CAD8DAD9EAD0E9423
:100F00004D09CF55DF4F688379838A839B83C15A0C
:100F1000D040CF55DF4F88819981AA81BB81C15ACA
:100F2000D0406D968CAF9DAFAEAFBFAF6D978E01C9
:100F30000D5B1F4F6D966CAD7DAD8EAD9FAD6D970A
:100F40000E94A408CB55DF4F688379838A839B83F3
:100F5000C55AD040CB55DF4FE881F981C55AD04002
:100F6000D8011196FC93EE9326C0CE018B5B9F4F68
:100F700020E931E0DC012D933C93CE018B5B9F4F48
:100F8000FC01808191810197F1F79E012B5B3F4F1E
:100F9000D9018D939C930000CE018D5B9F4F9E01E4
:100FA0002D5B3F4FF9012081318121503109DC0156
:100FB00011963C932E93CE018D5B9F4FFC01808157
:100FC0009181009791F639C08E010D5B1F4FCE01C4
:100FD000CF96DC016D917D918D919C910E94A4082A
:100FE000C755DF4F688379838A839B83C95AD04072
:100FF000C755DF4F88819981C95AD040F801918344
:101000008083CE01895B9F4F9E012D5B3F4FD901AD
:101010002D913C91FC0131832083CE01895B9F4F50
:10102000DC018D919C9111970197F1F79E01295B4D
:101030003F4FF90191838083000018CCA29FB0013B
:10104000B39FC001A39F700D811D1124911DB29FFC
:10105000700D811D1124911D08950E94D30808F47C
:1010600081E008950E9446080C940E090E94070929
:1010700058F00E94000940F029F45F3F29F00C94D9
:10108000F70851110C9442090C94FD080E941F09A5
:1010900068F39923B1F3552391F3951B550BBB27A7
:1010A000AA2762177307840738F09F5F5F4F220FEC
:1010B000331F441FAA1FA9F335D00E2E3AF0E0E8E3
:1010C00032D091505040E695001CCAF72BD0FE2F2D
:1010D00029D0660F771F881FBB1F261737074807C1
:1010E000AB07B0E809F0BB0B802DBF01FF27935879
:1010F0005F4F3AF09E3F510578F00C94F7080C943E
:1011000042095F3FE4F3983ED4F38695779567955F
:10111000B795F7959F5FC9F7880F911D96958795AD
:1011200097F90895E1E0660F771F881FBB1F6217CC
:1011300073078407BA0720F0621B730B840BBA0B8A
:10114000EE1F88F7E09508950E94270988F09F57C1
:1011500098F0B92F9927B751B0F0E1F0660F771FDB
:10116000881F991F1AF0BA95C9F714C0B13091F0D1
:101170000E944109B1E008950C944109672F782F2E
:101180008827B85F39F0B93FCCF386957795679596
:10119000B395D9F73EF490958095709561957F4F02
:1011A0008F4F9F4F0895990F0008550FAA0BE0E845
:1011B000FEEF16161706E807F907C0F01216130619
:1011C000E407F50798F0621B730B840B950B39F459
:1011D0000A2661F0232B242B252B21F408950A26BF
:1011E00009F4A140A6958FEF811D811D089597F9FF
:1011F0009F6780E870E060E008959FEF80EC0895BD
:1012000000240A94161617061806090608950024E5
:101210000A9412161306140605060895092E03945F
:10122000000C11F4882352F0BB0F40F4BF2B11F4D3
:1012300060FF04C06F5F7F4F8F4F9F4F089557FD32
:101240009058440F551F59F05F3F71F04795880F34
:1012500097FB991F61F09F3F79F0879508951216CB
:1012600013061406551FF2CF4695F1DF08C0161677
:1012700017061806991FF1CF869571056105089428
:101280000895E894BB2766277727CB0197F908953F
:101290000E94D30808F48FEF08950E9460090C940F
:1012A0000E090E94000938F00E94070920F09523DA
:1012B00011F00C94F7080C94FD0811240C944209C9
:1012C0000E941F0970F3959FC1F3950F50E0551FC1
:1012D000629FF001729FBB27F00DB11D639FAA278B
:1012E000F00DB11DAA1F649F6627B00DA11D661FDA
:1012F000829F2227B00DA11D621F739FB00DA11DFB
:10130000621F839FA00D611D221F749F3327A00DB4
:10131000611D231F849F600D211D822F762F6A2F50
:1013200011249F5750409AF0F1F088234AF0EE0FB5
:10133000FF1FBB1F661F771F881F91505040A9F7E2
:101340009E3F510580F00C94F7080C9442095F3FD2
:10135000E4F3983ED4F3869577956795B795F7951E
:10136000E7959F5FC1F7FE2B880F911D9695879596
:0813700097F90895F894FFCFEE
:00000001FF
